:100000000C9468010C94E8060C94BD060C949206BE
:100010000C9467060C943C060C9411060C94E605AF
:100020000C94BB050C9499010C9499010C949901C2
:100030000C9499010C9499010C9499010C949901D8
:100040000C9499010C94FD070C9499010C9499015E
:100050000C9499010C9499010C9499010C947105DC
:100060000C9499010C943D070C9413070C9499017E
:100070000C9499010C9499010C9499010C94990198
:100080000C94CF070C9499010C9499010C9499014C
:100090000C9499010C9499010C9499010C94990178
:1000A0000C9499010C9499010C94A1070C9499015A
:1000B0000C9499010C9499010C9499010C94730778
:1000C0000C9499010C9499010C9499010C94990148
:1000D0000C9499010C9499010C9499010C94990138
:1000E0000C9499010C9402050C9408050C94C3021D
:1000F0000C94FC040C94A8080C9480030C94140534
:100100000C9405020C9421020C94CB020C9416035F
:100110000C945D030C948E030C9420030C942F0319
:100120000C94DF020C94C6030C94F1010C94F701BB
:100130000C946C030C940C030C9409020C940E05A3
:100140000C94EA010C94D0010C940F020C94EE0173
:100150000C9498020C9402030C9490020C94F802F4
:100160000C9417020C9413020C94CB010C94E20132
:100170000C941A050C94D5020C94E9020C94B1026B
:100180000C9430030C94E6010C941D020C940102B3
:100190000C942A030C949D020C94290D0C94A70234
:1001A0000C94BB020C9413040C94FB01000021007E
:1001B000240027002A002D00300033000101000038
:1001C000040107010A0100002200250028002B007D
:1001D0002E003100340002010000050108010B016E
:1001E00000000A0B02090C0D0E08070304010000B1
:1001F00000000000000000000000000000000000FF
:1002000000000000000000000000000012111000BB
:1002100000000000000000000000000000000000DE
:1002200000000000000001021020200808102040FB
:1002300010204080020102010804020101020408AA
:100240001020408080402010080402018004020138
:100250008040201008040201080402010102040881
:10026000102040800102040810204080000020007F
:100270002300260029002C002F003200000100007E
:100280000301060109010505050507050808080819
:10029000020202020A0A080804040404010101011E
:1002A0000101010103030303030303030407070719
:1002B0000C0C0C0C0C0C0C0C0202020206060606BE
:1002C000060606060B0B0B0B0B0B0B0BA808290DD8
:1002D00011241FBECFEFD1E2DEBFCDBF00E00CBFC7
:1002E00012E0A0E0B2E0EEECF1E200E00BBF02C0F1
:1002F00007900D92A833B107D9F723E0A8E3B2E045
:1003000001C01D92A43DB207E1F711E0C7E6D1E0BC
:1003100000E006C021970109802FFE010E94650DB3
:10032000C636D10780E00807A9F70E940A0A0C9494
:10033000D5100C940000282F30E0F901E052FE4F58
:100340009491F901EA5DFD4F44912A573D4FF9011F
:100350002491222309F435C0992311F1915092314F
:10036000F8F4E92FF0E08827E754FE4F8F4F0C9404
:10037000650DEA01EE01CB01E201E601D001F101D8
:10038000F701FB010102050209020F021302D0016D
:1003900017021D022102809180008F7780938000D8
:1003A000E22FF0E0EE0FFF1FEA53FE4FA591B4914C
:1003B0008FB7F894EC91611148C040954E234C934F
:1003C0008FBF0895809180008F7DE8CF809180005D
:1003D000877FE4CF84B58F7784BDE2CF84B58F7DEE
:1003E000FBCF8091B0008F778093B000D9CF809100
:1003F000B0008F7DF9CF809190008F77809390002F
:10040000CFCF809190008F7DF9CF80919000877F32
:10041000F5CF8091A0008F778093A000C1CF80910D
:10042000A0008F7DF9CF8091A000877FF5CF8091CC
:1004300020018F7780932001B3CF809120018F7DA1
:10044000F9CF80912001877FF5CF4E2BB8CFCF9386
:10045000DF9390E0FC01EA5DFD4F24918A579D4FA8
:10046000FC0184918823D1F090E0880F991FFC0152
:10047000E455FE4FA591B491FC01EA53FE4FC5919E
:10048000D491623071F49FB7F8943C91822F80959B
:1004900083238C93E8812E2B28839FBFDF91CF91FC
:1004A00008958FB7F894EC912E2B2C938FBFF6CF35
:1004B0001F93CF93DF93182FEB0161E00E94270277
:1004C000209739F460E0812FDF91CF911F910C9438
:1004D0009B01CF3FD10511F461E0F5CFE12FF0E0B2
:1004E000E052FE4FE491E150E23108F0B3C0F0E099
:1004F0008827E258FD4F8F4F0C94650D90029802AB
:100500009D02A702B1022A03BB02C302CB02D5029D
:10051000DF02E902F80202032A030C031603200398
:1005200084B5806884BDC7BDDF91CF911F910895C8
:1005300084B5806284BDC8BDF7CF8091800080689B
:1005400080938000D0938900C0938800EDCF809184
:100550008000806280938000D0938B00C0938A00DB
:10056000E3CF80918000886080938000D0938D00DD
:10057000C0938C00D9CF8091B00080688093B00088
:10058000C093B300D1CF8091B00080628093B0005F
:10059000C093B400C9CF8091900080688093900090
:1005A000D0939900C0939800BFCF80919000806253
:1005B00080939000D0939B00C0939A00B5CF809118
:1005C0009000886080939000D0939D00C0939C0021
:1005D000ABCF8091A00080688093A0008091A000A4
:1005E0008F7B8093A000D093A900C093A8009CCFDC
:1005F0008091A00080628093A000D093AB00C09354
:10060000AA0092CF8091A00088608093A000D09330
:10061000AD00C093AC0088CF8091200180688093AA
:100620002001D0932901C09328017ECF8091200121
:10063000806280932001D0932B01C0932A0174CF54
:1006400080912001886080932001D0932D01C09378
:100650002C016ACFC038D1050CF03ECF33CF0895BE
:10066000AF92BF92CF92DF92EF92FF920F931F93C0
:10067000CF93DF936C017B018B01040F151FEB01FE
:100680005E01AE18BF08C017D10759F06991D601B5
:10069000ED91FC910190F081E02DC6011995892B17
:1006A00079F7C501DF91CF911F910F91FF90EF90E6
:1006B000DF90CF90BF90AF900895FC01538D448D93
:1006C000252F30E0842F90E0821B930B541710F0FD
:1006D000CF96089501970895FC01918D828D98170A
:1006E00061F0A28DAE0FBF2FB11D5D968C91928DE2
:1006F0009F5F9F73928F90E008958FEF9FEF089513
:10070000FC01918D828D981731F0828DE80FF11DDB
:10071000858D90E008958FEF9FEF0895FC01918DF6
:10072000228D892F90E0805C9F4F821B91098F73EF
:100730009927089581EE92E00E948E0321E0892B93
:1007400009F420E0822F0895FC01A48DA80FB92F91
:10075000B11DA35ABF4F2C91848D90E001968F73E9
:100760009927848FA689B7892C93A089B1898C9108
:10077000837080648C93938D848D981306C0028857
:10078000F389E02D80818F7D80830895EF92FF9221
:100790000F931F93CF93DF93EC0181E0888F9B8DA4
:1007A0008C8D98131AC0E889F989808185FF15C05E
:1007B0009FB7F894EE89FF896083E889F989808181
:1007C0008370806480839FBF81E090E0DF91CF9150
:1007D0001F910F91FF90EF900895F62E0B8D10E072
:1007E0000F5F1F4F0F731127E02E8C8D8E110CC0E1
:1007F0000FB607FCFACFE889F989808185FFF5CF2C
:10080000CE010E94A403F1CFEB8DEC0FFD2FF11D63
:10081000E35AFF4FF0829FB7F8940B8FEA89FB8968
:1008200080818062CFCFCF93DF93EC01888D8823C6
:10083000B9F0AA89BB89E889F9898C9185FD03C043
:10084000808186FD0DC00FB607FCF7CF8C9185FF28
:10085000F2CF808185FFEDCFCE010E94A403E9CFC6
:10086000DF91CF91089580E090E0892B29F00E94DC
:100870009A0381110E94000080E090E0892B49F0EA
:1008800080E090E0892B29F00E94000081110E94F5
:10089000000080E090E0892B49F080E090E0892B17
:1008A00029F00E94000081110E94000080E090E089
:1008B000892B49F080E090E0892B29F00E9400000C
:1008C00081110C9400000895CF93DF93DB01EA01BE
:1008D000FC01EC52FD4F40815CE0589F9001599F14
:1008E000300D112447FF1CC011961C921E9280816E
:1008F0008F5F80838081A901480F511D87FD5A9524
:1009000057FF03C080818C30ACF08D919C91119782
:10091000049680349C4938F18D919C91049625C0B1
:100920008081A901480F511D87FD5A9557FFDFCFE0
:100930008081DDCF8D919C914081240F311D47FD39
:100940003A95D901AA0FBB1FA20FB31FAC5BBD4FD5
:1009500011962D913C91820F931F998388838081FA
:10096000DF91CF91089580E49CE9998388838FEF8C
:100970008083F6CFDC01ED91FD918081ED91FD91B9
:100980009081ED91FD916C9163708E2309F064600C
:100990009F2309F06860E7EDF4E0E60FF11D65952F
:1009A00065956D936D917D918D919D91099423C075
:1009B0001AC012C016C010C01EC009C014C013C097
:1009C00006C019C009C00DC007C00DC014C06250D8
:1009D0007040804090400BC061507040804090401B
:1009E00006C06E5F01C06F5F7F4F8F4F9F4F9E931A
:1009F0008E937E936E93089580914202909143026C
:100A00000C94BA0480914002909141020C94BA0473
:100A100080913E0290913F020C94BA0480913C0276
:100A200090913D020C94BA0480913A0290913B025D
:100A30000C94BA0480913802909139020C94BA0453
:100A4000FC0101900020E9F73197AF01481B590BD9
:100A5000BC0181EE92E00C9430038F929F92AF9292
:100A6000BF920F931F93CF93DF93CDB7DEB7A197BC
:100A70000FB6F894DEBF0FBECDBF19A2423008F406
:100A80004AE08E010F5D1F4F842E912CB12CA12CBA
:100A9000A50194010E94430DE62FB901CA01EA3075
:100AA000F4F4E05DD801EE938D01232B242B252B4C
:100AB00079F790E080E0109719F0CD010E942005B1
:100AC000A1960FB6F894DEBF0FBECDBFDF91CF91D8
:100AD0001F910F91BF90AF909F908F900895E95C08
:100AE000E1CF1F920F920FB60F9211242F933F93D5
:100AF0008F939F93AF93BF938091DD029091DE021D
:100B0000A091DF02B091E0023091DC0223E0230FDC
:100B10002D3758F50196A11DB11D2093DC0280935D
:100B2000DD029093DE02A093DF02B093E002809199
:100B3000D8029091D902A091DA02B091DB0201961D
:100B4000A11DB11D8093D8029093D902A093DA021F
:100B5000B093DB02BF91AF919F918F913F912F9105
:100B60000F900FBE0F901F90189526E8230F029646
:100B7000A11DB11DD2CF1F920F920FB60F9211245B
:100B80000BB60F922F933F934F935F936F937F9387
:100B90008F939F93AF93BF93EF93FF93E0910E02D8
:100BA000F0910F021995FF91EF91BF91AF919F9135
:100BB0008F917F916F915F914F913F912F910F9006
:100BC0000BBE0F900FBE0F901F9018951F920F92A3
:100BD0000FB60F9211240BB60F922F933F934F93A2
:100BE0005F936F937F938F939F93AF93BF93EF9395
:100BF000FF93E0910C02F0910D021995FF91EF9196
:100C0000BF91AF919F918F917F916F915F914F9124
:100C10003F912F910F900BBE0F900FBE0F901F9022
:100C200018951F920F920FB60F9211240BB60F92C8
:100C30002F933F934F935F936F937F938F939F93E4
:100C4000AF93BF93EF93FF93E0910202F091030201
:100C50001995FF91EF91BF91AF919F918F917F91E6
:100C60006F915F914F913F912F910F900BBE0F901D
:100C70000FBE0F901F9018951F920F920FB60F92F4
:100C800011240BB60F922F933F934F935F936F9363
:100C90007F938F939F93AF93BF93EF93FF93E091D5
:100CA0000002F09101021995FF91EF91BF91AF9170
:100CB0009F918F917F916F915F914F913F912F9174
:100CC0000F900BBE0F900FBE0F901F9018951F92A4
:100CD0000F920FB60F9211240BB60F922F933F93E2
:100CE0004F935F936F937F938F939F93AF93BF9334
:100CF000EF93FF93E0910A02F0910B021995FF9197
:100D0000EF91BF91AF919F918F917F916F915F9183
:100D10004F913F912F910F900BBE0F900FBE0F90F0
:100D20001F9018951F920F920FB60F9211240BB6B9
:100D30000F922F933F934F935F936F937F938F9374
:100D40009F93AF93BF93EF93FF93E0910802F091CD
:100D500009021995FF91EF91BF91AF919F918F91EA
:100D60007F916F915F914F913F912F910F900BBEAB
:100D70000F900FBE0F901F9018951F920F920FB6F5
:100D80000F9211240BB60F922F933F934F935F93C3
:100D90006F937F938F939F93AF93BF93EF93FF9343
:100DA000E0910602F09107021995FF91EF91BF9132
:100DB000AF919F918F917F916F915F914F913F91F3
:100DC0002F910F900BBE0F900FBE0F901F90189594
:100DD0001F920F920FB60F9211240BB60F922F9302
:100DE0003F934F935F936F937F938F939F93AF93B3
:100DF000BF93EF93FF93E0910402F09105021995E0
:100E0000FF91EF91BF91AF919F918F917F916F91E2
:100E10005F914F913F912F910F900BBE0F900FBE9E
:100E20000F901F9018951F920F920FB60F921124DA
:100E30000BB60F922F933F934F935F936F937F93D4
:100E40008F939F93AF93BF93EF93FF9381EE92E0C5
:100E50000E94A403FF91EF91BF91AF919F918F9159
:100E60007F916F915F914F913F912F910F900BBEAA
:100E70000F900FBE0F901F9018951F920F920FB6F4
:100E80000F9211240BB60F922F938F939F93EF9392
:100E9000FF93E091F102F091F2028081E091F7027C
:100EA000F091F80282FD1DC090818091FA028F5F5F
:100EB0008F732091FB02821741F0E091FA02F0E07B
:100EC000EF51FD4F958F8093FA02FF91EF919F9123
:100ED0008F912F910F900BBE0F900FBE0F901F9010
:100EE00018958081F2CF1F920F920FB60F921124A6
:100EF0000BB60F922F933F934F935F936F937F9314
:100F00008F939F93AF93BF93EF93FF9348E251E08A
:100F100064E271E090E080E00E946404FF91EF9150
:100F2000BF91AF919F918F917F916F915F914F9101
:100F30003F912F910F900BBE0F900FBE0F901F90FF
:100F400018951F920F920FB60F9211240BB60F92A5
:100F50002F933F934F935F936F937F938F939F93C1
:100F6000AF93BF93EF93FF9348EA50E064EA70E0D9
:100F700083E090E00E946404FF91EF91BF91AF91F4
:100F80009F918F917F916F915F914F913F912F91A1
:100F90000F900BBE0F900FBE0F901F9018951F92D1
:100FA0000F920FB60F9211240BB60F922F933F930F
:100FB0004F935F936F937F938F939F93AF93BF9361
:100FC000EF93FF9348E950E064E970E082E090E03D
:100FD0000E946404FF91EF91BF91AF919F918F9117
:100FE0007F916F915F914F913F912F910F900BBE29
:100FF0000F900FBE0F901F9018951F920F920FB673
:101000000F9211240BB60F922F933F934F935F9340
:101010006F937F938F939F93AF93BF93EF93FF93C0
:1010200048E850E064E870E081E090E00E946404E9
:10103000FF91EF91BF91AF919F918F917F916F91B0
:101040005F914F913F912F910F900BBE0F900FBE6C
:101050000F901F901895823109F468C030F48230E7
:10106000E1F0833069F180E008958431D9F108F42A
:101070004BC08531C1F770933D0260933C028EE016
:1010800095E09093050280930402809169008C7F23
:10109000816080936900E89A11C07093390260936F
:1010A00038028AE195E090930102809300028091DA
:1010B0006A008C7F816080936A00EC9A81E00895D9
:1010C00070933B0260933A0284E195E090930302AF
:1010D0008093020280916A00837F846080936A001B
:1010E000ED9AECCF70933F0260933E0288E095E06A
:1010F000909307028093060280916900837F846049
:1011000080936900E99ADACF7093410260934002BC
:1011100082E095E090930902809308028091690033
:101120008F7C806180936900EA9AC8CF70934302F4
:10113000609342028CEF94E090930B0280930A023A
:10114000809169008F73806480936900EB9AB6CFB9
:10115000CF93DF931092E4021092E30288EE93E0C3
:10116000A0E0B0E08093E5029093E602A093E7024E
:10117000B093E8028AE192E09093E2028093E10268
:1011800085EC90E09093EE028093ED0284EC90E089
:101190009093F0028093EF0280EC90E09093F20243
:1011A0008093F10281EC90E09093F4028093F3023B
:1011B00082EC90E09093F6028093F50286EC90E04A
:1011C0009093F8028093F7021092FA021092FB02B9
:1011D0001092FC021092FD0282E090E09093BF0317
:1011E0008093BE039093C1038093C0031092BC030D
:1011F0001092BB0381E08093BD031092CF03109245
:10120000CE0384E090E00E94B00F9093C7038093D8
:10121000C603892B09F0DFC01092C2031092C303EA
:101220001092C4031092C5038CE090E09093A30346
:101230008093A2032BE030E03093A5032093A40316
:101240002AE030E03093A7032093A6032CE731E097
:101250003093A9032093A8039093AB038093AA0330
:101260000E94B00FEC0162E084E10E94270262E07C
:1012700085E10E942702EAE9F2E0E491F0E0EE0F56
:10128000FF1FE459FD4FA591B491B983A883EAE308
:10129000F2E064916C83EBE9F2E0E491F0E0EE0FB0
:1012A000FF1FE459FD4F259134913B832A83EBE3E3
:1012B000F2E0E491ED831F82188619861A864BE3CB
:1012C0005FE1CA010197F1F79C91862F892391E094
:1012D00009F490E0D9018C91E82309F092609E8393
:1012E000BE0184E10E942B088B87BE0185E10E942C
:1012F0002B089B85890F8B87D093B803C093B703C6
:1013000061E08091A2030E94270261E08091A40322
:101310000E94270261E08091A6030E94270261E0FB
:101320008091A4030E949B0160E08091A6030E942B
:101330009B011092B2031092B10388E29FEAA1EAE6
:10134000BDE38093AD039093AE03A093AF03B0933E
:10135000B00381E08093AC0380E090E0A0E2B1E4D0
:101360008093860390938703A0938803B0938903A7
:101370008AE097EDA3E2BDE380938A0390938B0309
:10138000A0938C03B0938D0380E090E0A0E0B0E4E4
:1013900080938E0390938F03A0939003B093910357
:1013A00080E090E0A0E8BFE380939A0390939B03D2
:1013B000A0939C03B0939D038AE999E9A9E9BDE351
:1013C00080939E0390939F03A093A003B093A103E7
:1013D000DF91CF91089584E090E0A0E0B0E08093A9
:1013E000C2039093C303A093C403B093C50385EADB
:1013F0009AE59093CF038093CE031092C903109285
:10140000C8031092CB031092CA031092CD0310921E
:10141000CC030ACFCF93DF93CDB7DEB72C970FB6AF
:10142000F894DEBF0FBECDBF789484B5826084BDD2
:1014300084B5816084BD85B5826085BD85B58160D8
:1014400085BD80916E00816080936E001092810056
:101450008091810082608093810080918100816011
:1014600080938100809180008160809380008091D2
:10147000B10084608093B1008091B000816080935E
:10148000B0008091910082608093910080919100E2
:1014900081608093910080919000816080939000A2
:1014A0008091A10082608093A1008091A100816061
:1014B0008093A1008091A00081608093A000809122
:1014C00021018260809321018091210181608093BC
:1014D00021018091200181608093200180917A0018
:1014E000846080937A0080917A00826080937A0091
:1014F00080917A00816080937A0080917A00806880
:1015000080937A001092C100E091F102F091F20212
:1015100082E08083E091ED02F091EE021082E09192
:10152000EF02F091F0028FEC80831092F902E091CB
:10153000F502F091F60286E08083E091F302F091EB
:10154000F402808180618083E091F302F091F402E3
:10155000808188608083E091F302F091F4028081C1
:1015600080688083E091F302F091F40280818F7DA6
:1015700080838091AC03882361F061E08091A403B3
:101580000E949B0160E08091A6030E949B01109243
:10159000AC0382E390E09093B2038093B10362E3E3
:1015A00070E08091A2030E9458026091B103709193
:1015B000B2038091A2030E945802C090AD03D09064
:1015C000AE03E090AF03F090B0038091B703909129
:1015D000B8039A838983DC011B968C91823008F0D2
:1015E0007EC1F89489819A810E94BA04E981FA81C6
:1015F000678170858185928578940E94890EA70104
:1016000096010E943E0F6B017C013FB7F8948091D8
:10161000D8029091D902A091DA02B091DB0226B5EE
:10162000A89B05C02F3F19F00196A11DB11D3FBF1A
:10163000BA2FA92F982F8827BC01CD01620F711DE9
:10164000811D911D42E0660F771F881F991F4A95E3
:10165000D1F70E94870E20E034E244E759E40E946B
:10166000DF0D0E94580E0E94870E6D837E838F834C
:10167000988740907E0350907F0360908003709025
:101680008103209182033091830340918403509120
:101690008503C301B2010E946E0D9B01AC016D81F7
:1016A0007E818F8198850E94390F18160CF0CFC06B
:1016B000A30192016D817E818F8198850E946D0DBD
:1016C00069877A878B879C87A701960160E070E025
:1016D00084EB93E40E946D0D69837A838B839C83F2
:1016E00080909E0390909F03A090A003B090A103D0
:1016F000209192033091930340919403509195036C
:101700000E946D0D29853A854B855C850E94DF0D11
:10171000A50194010E943E0F2B013C01A5019401FB
:1017200060E070E080E89FE30E946D0D20919603D9
:101730003091970340919803509199030E943E0F76
:101740009B01AC01C301B2010E946E0D2B013C0153
:10175000209186033091870340918803509189033B
:1017600069817A818B819C810E943E0F4B015C01D3
:1017700020918A0330918B0340918C0350918D030B
:10178000C301B2010E943E0F9B01AC01C501B4012F
:101790000E946E0D4B015C0129813A814B815C8175
:1017A00069857A858B859C850E943E0F20E030E01C
:1017B000A9010E946E0D20918E0330918F034091FC
:1017C0009003509191030E943E0F9B01AC01C50113
:1017D000B4010E946E0D4B015C0140929603509241
:1017E0009703609298037092990389819A81AB81E3
:1017F000BC818093920390939303A0939403B0933E
:1018000095038D819E81AF81B88580937E039093EF
:101810007F03A0938003B093810320E030E040EF8A
:1018200051ECC501B4010E94DA0D87FD5AC020E0D9
:1018300030E040EF51E4C501B4010E94390F1816A1
:1018400034F4812C912C90EFA92E91E4B92EC5018E
:10185000B4010E94510E7A8369836F3F710511F0C4
:101860000CF060C06130EFEF7E070CF441C077FFF1
:1018700044C08091AC0381110DC060E08091A4034D
:101880000E949B0161E08091A6030E949B0181E080
:101890008093AC03A981BA81B195A195B109BA83AE
:1018A000A983A981BA81B093B203A093B103BD010A
:1018B0008091A2030E945802A7019601C701B601B8
:1018C0000E94AB0F882399F188E292E00E942005E4
:1018D00084E392E00E9420050E9433046ECEF894C7
:1018E00085CE812C912C80EFA82E81ECB82EAFCF25
:1018F00081E09FEF9A838983BCCFE981FA81EF2B46
:1019000081F28091AC03882361F261E08091A403AD
:101910000E949B0160E08091A6030E949B011092AF
:10192000AC03BFCF8FEF90E09A838983EACF260183
:101930003701E89477F82FEF3FEF4FE75FE7C301F8
:10194000B2010E94AB0F81110DC02FEF3FEF4FE7A7
:101950005FE7C301B2010E94DA0D18161CF48CE295
:1019600092E0B4CF2FEF3FEF4FE75FE4C701B6013E
:101970000E94390F18161CF480E392E0A7CF2FEFD6
:101980003FEF4FE75FECC701B6010E94DA0D87FD1C
:10199000F3CF20E030E0A901C701B6010E94DA0DC3
:1019A00087FF09C06DE281EE92E00E94C603F7FA5C
:1019B000F094F7F8F0942AE037ED43EA5BE3C701CF
:1019C000B6010E946E0D2B013C010E94580E6B0166
:1019D0007C010E94870E9B01AC01C301B2010E94F1
:1019E0006D0D2B013C014AE0C701B6010E942D0597
:1019F0006EE281EE92E00E94C60320E030E040E219
:101A000051E4C301B2010E943E0F2B013C010E9430
:101A1000580E6B01F12CE12C4AE0C701B6010E947F
:101A20002D05C701B6010E94870E9B01AC01C301C1
:101A3000B2010E946D0D20E030E040E251E40E94CE
:101A40003E0F0E94580E90E080E04AE00E942D0573
:101A50003FCF8091B7039091B8030E944C108091C2
:101A6000B9039091BA030E944C108091CE039091DB
:101A7000CF03853A9A4531F48091C6039091C7030C
:101A80000C944C100895A1E21A2EAA1BBB1BFD0159
:101A90000DC0AA1FBB1FEE1FFF1FA217B307E4074D
:101AA000F50720F0A21BB30BE40BF50B661F771FA5
:101AB000881F991F1A9469F7609570958095909585
:101AC0009B01AC01BD01CF010895EE0FFF1F881FE0
:101AD0008BBF0790F691E02D19945058BB27AA2789
:101AE0000E94850D0C94FF0E0E94F10E38F00E94AA
:101AF000F80E20F039F49F3F19F426F40C94EE0E02
:101B00000EF4E095E7FB0C94E80EE92F0E94100F0D
:101B100058F3BA17620773078407950720F079F422
:101B2000A6F50C94320F0EF4E0950B2EBA2FA02DD3
:101B30000B01B90190010C01CA01A0011124FF277A
:101B4000591B99F0593F50F4503E68F11A16F04075
:101B5000A22F232F342F4427585FF3CF4695379574
:101B60002795A795F0405395C9F77EF41F16BA0B39
:101B7000620B730B840BBAF09150A1F0FF0FBB1FE7
:101B8000661F771F881FC2F70EC0BA0F621F731F30
:101B9000841F48F4879577956795B795F7959E3F8D
:101BA00008F0B0CF9395880F08F09927EE0F97951E
:101BB000879508950E94C40E08F481E008950E945C
:101BC000F30D0C94FF0E0E94F80E58F00E94F10ED7
:101BD00040F029F45F3F29F00C94E80E51110C9469
:101BE000330F0C94EE0E0E94100F68F39923B1F39B
:101BF000552391F3951B550BBB27AA276217730733
:101C0000840738F09F5F5F4F220F331F441FAA1FC6
:101C1000A9F335D00E2E3AF0E0E832D09150504082
:101C2000E695001CCAF72BD0FE2F29D0660F771F30
:101C3000881FBB1F261737074807AB07B0E809F016
:101C4000BB0B802DBF01FF2793585F4F3AF09E3F9B
:101C5000510578F00C94E80E0C94330F5F3FE4F3D9
:101C6000983ED4F3869577956795B795F7959F5FDE
:101C7000C9F7880F911D9695879597F90895E1E02A
:101C8000660F771F881FBB1F621773078407BA0789
:101C900020F0621B730B840BBA0BEE1F88F7E095E4
:101CA00008950E94580E6894B1110C94330F089552
:101CB0000E94180F88F09F5798F0B92F9927B751B5
:101CC000B0F0E1F0660F771F881F991F1AF0BA95E0
:101CD000C9F714C0B13091F00E94320FB1E00895FD
:101CE0000C94320F672F782F8827B85F39F0B93FEF
:101CF000CCF3869577956795B395D9F73EF4909593
:101D00008095709561957F4F8F4F9F4F0895E89410
:101D100009C097FB3EF490958095709561957F4F33
:101D20008F4F9F4F9923A9F0F92F96E9BB279395E1
:101D3000F695879577956795B795F111F8CFFAF4F1
:101D4000BB0F11F460FF1BC06F5F7F4F8F4F9F4F22
:101D500016C0882311F096E911C0772321F09EE880
:101D6000872F762F05C0662371F096E8862F70E0E6
:101D700060E02AF09A95660F771F881FDAF7880FC0
:101D80009695879597F90895990F0008550FAA0B16
:101D9000E0E8FEEF16161706E807F907C0F012167E
:101DA0001306E407F50798F0621B730B840B950B81
:101DB00039F40A2661F0232B242B252B21F40895D6
:101DC0000A2609F4A140A6958FEF811D811D089573
:101DD00097F99F6780E870E060E008959FEF80ECDE
:101DE000089500240A941616170618060906089581
:101DF00000240A9412161306140605060895092EE7
:101E00000394000C11F4882352F0BB0F40F4BF2B55
:101E100011F460FF04C06F5F7F4F8F4F9F4F089595
:101E200057FD9058440F551F59F05F3F71F047958B
:101E3000880F97FB991F61F09F3F79F08795089570
:101E4000121613061406551FF2CF4695F1DF08C08F
:101E5000161617061806991FF1CF869571056105AC
:101E600008940895E894BB2766277727CB0197F954
:101E700008950E94C40E08F48FEF08950E94510F38
:101E80000C94FF0E0E94F10E38F00E94F80E20F024
:101E9000952311F00C94E80E0C94EE0E11240C9482
:101EA000330F0E94100F70F3959FC1F3950F50E010
:101EB000551F629FF001729FBB27F00DB11D639FFC
:101EC000AA27F00DB11DAA1F649F6627B00DA11DA2
:101ED000661F829F2227B00DA11D621F739FB00D48
:101EE000A11D621F839FA00D611D221F749F3327B8
:101EF000A00D611D231F849F600D211D822F762F51
:101F00006A2F11249F5750409AF0F1F088234AF02D
:101F1000EE0FFF1FBB1F661F771F881F9150504099
:101F2000A9F79E3F510580F00C94E80E0C94330FF6
:101F30005F3FE4F3983ED4F3869577956795B79520
:101F4000F795E7959F5FC1F7FE2B880F911D96953A
:101F5000879597F908950E94C40E880B990B0895F0
:101F60000F931F93CF93DF938230910510F482E09B
:101F700090E0E091D203F091D30330E020E0B0E0B4
:101F8000A0E0309799F42115310509F44AC0281BC7
:101F9000390B24303105D8F58A819B816115710593
:101FA00089F1FB0193838283FE0111C0408151813D
:101FB0000281138148175907E0F04817590799F42F
:101FC000109761F012960C93129713961C93329609
:101FD000CF01DF91CF911F910F9108950093D2030C
:101FE0001093D303F4CF2115310551F04217530755
:101FF00038F0A901DB019A01BD01DF01F801C1CF71
:10200000EF01F9CF9093D3038093D203CDCFFE019C
:10201000E20FF31F81939193225031093983288372
:10202000D7CF2091D0033091D103232B41F42091BD
:102030001202309113023093D1032093D0032091E8
:102040001002309111022115310541F42DB73EB730
:102050004091140250911502241B350BE091D003DE
:10206000F091D103E217F307A0F42E1B3F0B2817C2
:10207000390778F0AC014E5F5F4F2417350748F001
:102080004E0F5F1F5093D1034093D00381939193E0
:102090009FCFF0E0E0E09CCFCF93DF930097E9F093
:1020A000FC01329713821282A091D203B091D30324
:1020B000ED0130E020E01097A1F420813181820F02
:1020C000931F2091D0033091D1032817390709F0CD
:1020D00061C0F093D103E093D003DF91CF910895D5
:1020E000EA01CE17DF07E8F54A815B819E014115C1
:1020F0005105B1F7E901FB83EA8349915991C40F76
:10210000D51FEC17FD0761F4808191810296840F41
:10211000951FE90199838883828193819B838A83B8
:10212000F0E0E0E012968D919C9113970097B9F53D
:102130002D913C911197CD010296820F931F209112
:10214000D0033091D1032817390739F6309751F56C
:102150001092D3031092D203B093D103A093D00373
:10216000BCCFD383C28340815181840F951FC81790
:10217000D90761F44E5F5F4F88819981480F591FDD
:10218000518340838A819B8193838283211531050A
:1021900009F0B0CFF093D303E093D2039ECFFD01BB
:1021A000DC01C0CF13821282D7CF11E0C7E6D1E0A5
:1021B00000E006C0802FFE010E94650D2196011DE2
:0E21C000C836D10780E00807A9F7F894FFCFD2
:1021CE002F032F032F032F032F032F032F032F0371
:1021DE000000D403800000000000C60330035D033E
:1021EE0013048E036C0380036E616E00696E6600CD
:0821FE006F7666000D0A000077
:00000001FF
