:100000000C9446010C94DF050C94B4050C948905FE
:100010000C945E050C9433050C9408050C94DD04D7
:100020000C94B2040C9477010C9477010C94770132
:100030000C9477010C9477010C9477010C94770160
:100040000C9477010C94F4060C9477010C947701CE
:100050000C9477010C9477010C9477010C9468044C
:100060000C9477010C9434060C940A060C947701D6
:100070000C9477010C9477010C9477010C94770120
:100080000C94C6060C9477010C9477010C947701BC
:100090000C9477010C9477010C9477010C94770100
:1000A0000C9477010C9477010C9498060C947701CA
:1000B0000C9477010C9477010C9477010C946A06E8
:1000C0000C9477010C9477010C9477010C947701D0
:1000D0000C9477010C9477010C9477010C947701C0
:1000E0000C9477010C94D9010C9456020C94F501F0
:1000F0000C94D5010C9405020C94ED010C94D803DA
:100100000C94DE030C94EA030C94C0010C94FF01E0
:100110000C94030B0C94E9020C94E4030C94060277
:100120000C94E3010C949C020C94FB010C94E701E9
:100130000C94C8010C94F1010C94CF010C94DF01D4
:100140000C94CC010C9464020C9442020C94D203E3
:100150000C94C4010C94F0030C94A9010C94330288
:100160000C94AE010C94D00700002100240027005D
:100170002A002D00300033000101000004010701B6
:100180000A0100002200250028002B002E0031006B
:10019000340002010000050108010B0100000A0BF8
:1001A00002090C0D0E080703040100000000000006
:1001B000000000000000000000000000000000003F
:1001C00000000000000000001211100000000000FC
:1001D000000000000000000000000000000000001F
:1001E000000001021020200808102040102040804C
:1001F00002010201080402010102040810204080EB
:100200008040201008040201800402018040201078
:1002100008040201080402010102040810204080C1
:100220000102040810204080000020002300260066
:1002300029002C002F0032000001000003010601FC
:10024000090105050505070508080808020202025C
:100250000A0A080804040404010101010101010162
:100260000303030303030303040707070C0C0C0C2D
:100270000C0C0C0C02020202060606060606060616
:100280000B0B0B0B0B0B0B0BD007030B11241FBE1F
:10029000CFEFD1E2DEBFCDBF00E00CBF12E0A0E0A7
:1002A000B2E0EEE0F9E100E00BBF02C007900D9272
:1002B000A038B107D9F724E0A0E8B2E001C01D9250
:1002C000A032B207E1F711E0C5E4D1E000E006C0DA
:1002D00021970109802FFE010E943F0BC434D107F2
:1002E00080E00807A9F70E9436090C94750C0C945D
:1002F0000000282F30E0F901E456FE4F9491F901F7
:10030000EE51FE4F44912E5B3D4FF9012491222383
:1003100009F435C0992311F191509231F8F4E92F85
:10032000F0E08827E956FE4F8F4F0C943F0BC80131
:10033000CC01A901C001C401AE01CF01D501D90191
:10034000DF01E301E701ED01F101AE01F501FB0180
:10035000FF01809180008F7780938000E22FF0E092
:10036000EE0FFF1FEE57FE4FA591B4918FB7F89493
:10037000EC91611148C040954E234C938FBF089576
:10038000809180008F7DE8CF80918000877FE4CFCF
:1003900084B58F7784BDE2CF84B58F7DFBCF80910C
:1003A000B0008F778093B000D9CF8091B0008F7D5F
:1003B000F9CF809190008F7780939000CFCF80917C
:1003C00090008F7DF9CF80919000877FF5CF80914D
:1003D000A0008F778093A000C1CF8091A0008F7D77
:1003E000F9CF8091A000877FF5CF809120018F7792
:1003F00080932001B3CF809120018F7DF9CF809130
:100400002001877FF5CF4E2BB8CF0895AF92BF92D2
:10041000CF92DF92EF92FF920F931F93CF93DF93D0
:100420006C017B018B01040F151FEB015E01AE18FF
:10043000BF08C017D10759F06991D601ED91FC9121
:100440000190F081E02DC6011995892B79F7C5013E
:10045000DF91CF911F910F91FF90EF90DF90CF90A0
:10046000BF90AF900895FC01538D448D252F30E04F
:10047000842F90E0821B930B541710F0CF960895B1
:1004800001970895FC01918D828D981761F0A28DDE
:10049000AE0FBF2FB11D5D968C91928D9F5F9F73A4
:1004A000928F90E008958FEF9FEF0895FC01918D5A
:1004B000828D981731F0828DE80FF11D858D90E0C7
:1004C00008958FEF9FEF0895FC01918D228D892F64
:1004D00090E0805C9F4F821B91098F73992708954C
:1004E00089E293E00E94640221E0892B09F420E074
:1004F000822F0895FC01A48DA80FB92FB11DA35A16
:10050000BF4F2C91848D90E001968F739927848F33
:10051000A689B7892C93A089B1898C918370806456
:100520008C93938D848D981306C00288F389E02DF7
:1005300080818F7D80830895EF92FF920F931F93A8
:10054000CF93DF93EC0181E0888F9B8D8C8D981386
:100550001AC0E889F989808185FF15C09FB7F89492
:10056000EE89FF896083E889F989808183708064DE
:1005700080839FBF81E090E0DF91CF911F910F9129
:10058000FF90EF900895F62E0B8D10E00F5F1F4F38
:100590000F731127E02E8C8D8E110CC00FB607FC47
:1005A000FACFE889F989808185FFF5CFCE010E94D5
:1005B0007A02F1CFEB8DEC0FFD2FF11DE35AFF4FC7
:1005C000F0829FB7F8940B8FEA89FB898081806263
:1005D000CFCFCF93DF93EC01888D8823B9F0AA8920
:1005E000BB89E889F9898C9185FD03C0808186FDEE
:1005F0000DC00FB607FCF7CF8C9185FFF2CF80813D
:1006000085FFEDCFCE010E947A02E9CFDF91CF9135
:10061000089580E090E0892B29F00E9470028111FA
:100620000E94000080E090E0892B49F080E090E09B
:10063000892B29F00E94000081110E94000080E0B7
:1006400090E0892B49F080E090E0892B29F00E940E
:10065000000081110E94000080E090E0892B49F0A9
:1006600080E090E0892B29F00E94000081110C9419
:1006700000000895CF93DF93DB01EA01FC01E45E03
:10068000FC4F40815CE0589F9001599F300D112430
:1006900047FF1CC011961C921E9280818F5F808341
:1006A0008081A901480F511D87FD5A9557FF03C04E
:1006B00080818C30ACF08D919C91119704968034A0
:1006C0009C4938F18D919C91049625C08081A901A7
:1006D000480F511D87FD5A9557FFDFCF8081DDCF31
:1006E0008D919C914081240F311D47FD3A95D90190
:1006F000AA0FBB1FA20FB31FA457BD4F11962D9178
:100700003C91820F931F998388838081DF91CF91E1
:10071000089580E49CE9998388838FEF8083F6CFE6
:10072000DC01ED91FD918081ED91FD919081ED9144
:10073000FD916C9163708E2309F064609F2309F032
:100740006860EDEAF3E0E60FF11D659565956D9340
:100750006D917D918D919D91099423C01AC012C015
:1007600016C010C01EC009C014C013C006C019C0F6
:1007700009C00DC007C00DC014C062507040804059
:1007800090400BC0615070408040904006C06E5F4A
:1007900001C06F5F7F4F8F4F9F4F9E938E937E93CD
:1007A0006E93089580918A0290918B020C9490032D
:1007B00080918802909189020C9490038091860226
:1007C000909187020C94900380918402909185020D
:1007D0000C94900380918202909183020C94900378
:1007E00080918002909181020C949003FC01019011
:1007F0000020E9F73197AF01481B590BBC0189E292
:1008000093E00C9406028F929F92AF92BF920F9347
:100810001F93CF93DF93CDB7DEB7A1970FB6F894B0
:10082000DEBF0FBECDBF19A2423008F44AE08E01F0
:100830000F5D1F4F842E912CB12CA12CA50194018A
:100840000E941D0BE62FB901CA01EA30F4F4E05D05
:10085000D801EE938D01232B242B252B79F790E0E3
:1008600080E0109719F0CD010E94F603A1960FB613
:10087000F894DEBF0FBECDBFDF91CF911F910F91D6
:10088000BF90AF909F908F900895E95CE1CFCF9299
:10089000DF92EF92FF92CF93DF936B017C016DE2C9
:1008A00089E293E00E949C02EC0166277727CB0146
:1008B0006C197D098E099F094AE00E9403048C0F80
:1008C0009D1FDF91CF91FF90EF90DF90CF90089523
:1008D0001F920F920FB60F9211242F933F938F9375
:1008E0009F93AF93BF938091250390912603A0918E
:1008F0002703B09128033091240323E0230F2D37E1
:1009000058F50196A11DB11D209324038093250362
:1009100090932603A0932703B0932803809120038C
:1009200090912103A0912203B09123030196A11D70
:10093000B11D8093200390932103A0932203B093D1
:100940002303BF91AF919F918F913F912F910F9072
:100950000FBE0F901F90189526E8230F0296A11D39
:10096000B11DD2CF1F920F920FB60F9211240BB66A
:100970000F922F933F934F935F936F937F938F9338
:100980009F93AF93BF93EF93FF93E0910E02F0918B
:100990000F021995FF91EF91BF91AF919F918F91A8
:1009A0007F916F915F914F913F912F910F900BBE6F
:1009B0000F900FBE0F901F9018951F920F920FB6B9
:1009C0000F9211240BB60F922F933F934F935F9387
:1009D0006F937F938F939F93AF93BF93EF93FF9307
:1009E000E0910C02F0910D021995FF91EF91BF91EA
:1009F000AF919F918F917F916F915F914F913F91B7
:100A00002F910F900BBE0F900FBE0F901F90189557
:100A10001F920F920FB60F9211240BB60F922F93C5
:100A20003F934F935F936F937F938F939F93AF9376
:100A3000BF93EF93FF93E0910202F09103021995A7
:100A4000FF91EF91BF91AF919F918F917F916F91A6
:100A50005F914F913F912F910F900BBE0F900FBE62
:100A60000F901F9018951F920F920FB60F9211249E
:100A70000BB60F922F933F934F935F936F937F9398
:100A80008F939F93AF93BF93EF93FF93E0910002F7
:100A9000F09101021995FF91EF91BF91AF919F9154
:100AA0008F917F916F915F914F913F912F910F9017
:100AB0000BBE0F900FBE0F901F9018951F920F92B4
:100AC0000FB60F9211240BB60F922F933F934F93B3
:100AD0005F936F937F938F939F93AF93BF93EF93A6
:100AE000FF93E0910A02F0910B021995FF91EF91AB
:100AF000BF91AF919F918F917F916F915F914F9136
:100B00003F912F910F900BBE0F900FBE0F901F9033
:100B100018951F920F920FB60F9211240BB60F92D9
:100B20002F933F934F935F936F937F938F939F93F5
:100B3000AF93BF93EF93FF93E0910802F091090206
:100B40001995FF91EF91BF91AF919F918F917F91F7
:100B50006F915F914F913F912F910F900BBE0F902E
:100B60000FBE0F901F9018951F920F920FB60F9205
:100B700011240BB60F922F933F934F935F936F9374
:100B80007F938F939F93AF93BF93EF93FF93E091E6
:100B90000602F09107021995FF91EF91BF91AF9175
:100BA0009F918F917F916F915F914F913F912F9185
:100BB0000F900BBE0F900FBE0F901F9018951F92B5
:100BC0000F920FB60F9211240BB60F922F933F93F3
:100BD0004F935F936F937F938F939F93AF93BF9345
:100BE000EF93FF93E0910402F09105021995FF91B4
:100BF000EF91BF91AF919F918F917F916F915F9195
:100C00004F913F912F910F900BBE0F900FBE0F9001
:100C10001F9018951F920F920FB60F9211240BB6CA
:100C20000F922F933F934F935F936F937F938F9385
:100C30009F93AF93BF93EF93FF9389E293E00E945A
:100C40007A02FF91EF91BF91AF919F918F917F9128
:100C50006F915F914F913F912F910F900BBE0F902D
:100C60000FBE0F901F9018951F920F920FB60F9204
:100C700011240BB60F922F938F939F93EF93FF93B3
:100C8000E0913903F0913A038081E0913F03F091C4
:100C9000400382FD1DC09081809142038F5F8F735E
:100CA00020914303821741F0E0914203F0E0E75DB9
:100CB000FC4F958F80934203FF91EF919F918F910D
:100CC0002F910F900BBE0F900FBE0F901F90189595
:100CD0008081F2CF1F920F920FB60F9211240BB6A4
:100CE0000F922F933F934F935F936F937F938F93C5
:100CF0009F93AF93BF93EF93FF9348E251E064E279
:100D000071E090E080E00E943A03FF91EF91BF9183
:100D1000AF919F918F917F916F915F914F913F9193
:100D20002F910F900BBE0F900FBE0F901F90189534
:100D30001F920F920FB60F9211240BB60F922F93A2
:100D40003F934F935F936F937F938F939F93AF9353
:100D5000BF93EF93FF9348EA50E064EA70E083E0CA
:100D600090E00E943A03FF91EF91BF91AF919F9164
:100D70008F917F916F915F914F913F912F910F9044
:100D80000BBE0F900FBE0F901F9018951F920F92E1
:100D90000FB60F9211240BB60F922F933F934F93E0
:100DA0005F936F937F938F939F93AF93BF93EF93D3
:100DB000FF9348E950E064E970E082E090E00E942F
:100DC0003A03FF91EF91BF91AF919F918F917F91E6
:100DD0006F915F914F913F912F910F900BBE0F90AC
:100DE0000FBE0F901F9018951F920F920FB60F9283
:100DF00011240BB60F922F933F934F935F936F93F2
:100E00007F938F939F93AF93BF93EF93FF9348E8A4
:100E100050E064E870E081E090E00E943A03FF91C6
:100E2000EF91BF91AF919F918F917F916F915F9162
:100E30004F913F912F910F900BBE0F900FBE0F90CF
:100E40001F901895CF93DF9390E0FC01EE51FE4F79
:100E500024918E5B9D4FFC0184918823D1F090E01A
:100E6000880F991FFC01E859FE4FA591B491FC0130
:100E7000EE57FE4FC591D491623071F49FB7F8944C
:100E80003C91822F809583238C93E8812E2B28839D
:100E90009FBFDF91CF9108958FB7F894EC912E2BDF
:100EA0002C938FBFF6CF823109F468C030F48230C2
:100EB000E1F0833069F180E008958431D9F108F4DC
:100EC0004BC08531C1F7709385026093840284EE34
:100ED00093E09093050280930402809169008C7FD7
:100EE000816080936900E89A11C0709381026093D9
:100EF000800280EF93E09093010280930002809142
:100F00006A008C7F816080936A00EC9A81E008958A
:100F100070938302609382028AEE93E090930302BF
:100F20008093020280916A00837F846080936A00CC
:100F3000ED9AECCF70938702609386028EED93E07A
:100F4000909307028093060280916900837F8460FA
:100F500080936900E99ADACF7093890260938802DE
:100F600088ED93E0909309028093080280916900D4
:100F70008F7C806180936900EA9AC8CF70938B025E
:100F800060938A0282ED93E090930B0280930A02B1
:100F9000809169008F73806480936900EB9AB6CF6B
:100FA000CF93DF9310922C0310922B0388EE93E0E3
:100FB000A0E0B0E080932D0390932E03A0932F0325
:100FC000B09330038AE192E090932A03809329033F
:100FD00085EC90E0909336038093350384EC90E0A9
:100FE000909338038093370380EC90E090933A031A
:100FF0008093390381EC90E090933C0380933B0312
:1010000082EC90E090933E0380933D0386EC90E069
:101010009093400380933F03109242031092430346
:10102000109244031092450382E090E090930B04E9
:1010300080930A0490930D0480930C04109208048A
:101040001092070481E08093090410921B0410920F
:101050001A0484E090E00E94470B9093130480935D
:101060001204892B09F0E3C010920E0410920F04B1
:1010700010921004109211048CE090E09093EF0312
:101080008093EE032BE030E03093F1032093F003E4
:101090002AE030E03093F3032093F2032CE731E0B1
:1010A0003093F5032093F4039093F7038093F603B2
:1010B0000E94470BEC0162E084E10E94220762E09B
:1010C00085E10E942207E6E5F2E0E491F0E0EE0F10
:1010D000FF1FE85DFD4FA591B491B983A883E6EFAA
:1010E000F1E064916C83E7E5F2E0E491F0E0EE0F6B
:1010F000FF1FE85DFD4F259134913B832A83E7EF85
:10110000F1E0E491ED831F82188619861A864BE37D
:101110005FE1CA010197F1F79C91862F892391E045
:1011200009F490E0D9018C91E82309F092609E8344
:10113000BE0184E10E9453078B87BE0185E10E94B6
:1011400053079B85890F8B87D0930404C0930304B6
:1011500061E08091EE030E94220761E08091F0033C
:101160000E94220761E08091F2030E94220761E061
:101170008091F0030E94790160E08091F2030E9467
:1011800079011092FE031092FD0388E29FEAA1EA22
:10119000BDE38093F9039093FA03A093FB03B0930C
:1011A000FC0381E08093F80380E090E0A8E4B2E4DF
:1011B0008093CE039093CF03A093D003B093D10339
:1011C0008AE999E9A9E9BEE38093D2039093D30316
:1011D000A093D403B093D50380E090E0A0E8BFE3F0
:1011E0008093D6039093D703A093D803B093D903E9
:1011F0008093E2039093E303A093E403B093E503A9
:101200008093E6039093E703A093E803B093E90388
:1012100080E090E0A0E4BFE38093EA039093EB03C7
:10122000A093EC03B093ED03DF91CF91089584E098
:1012300090E0A0E0B0E080930E0490930F04A093A0
:101240001004B093110485EA9AE590931B048093EF
:101250001A0410921504109214041092170410929C
:101260001604109219041092180406CF789484B5CD
:10127000826084BD84B5816084BD85B5826085BD92
:1012800085B5816085BD80916E00816080936E0020
:101290001092810080918100826080938100809112
:1012A00081008160809381008091800081608093C3
:1012B00080008091B10084608093B1008091B00083
:1012C00081608093B0008091910082608093910052
:1012D0008091910081608093910080919000816065
:1012E000809390008091A10082608093A100809102
:1012F000A10081608093A1008091A0008160809313
:10130000A0008091210182608093210180912101C0
:101310008160809321018091200181608093200170
:1013200080917A00846080937A0080917A00826054
:1013300080937A0080917A00816080937A00809116
:101340007A00806880937A001092C100E09139039E
:10135000F0913A0382E08083E0913503F091360307
:101360001082E0913703F09138038FEC8083109264
:101370004103E0913D03F0913E0386E08083E091DC
:101380003B03F0913C03808180618083E0913B03CB
:10139000F0913C03808188608083E0913B03F09171
:1013A0003C03808180688083E0913B03F0913C03A3
:1013B00080818F7D808311E0C1E0D0E088E292E0FF
:1013C0000E94F60386E392E00E94F60389E293E02E
:1013D0000E946402892BD1F389E293E00E944202C9
:1013E000893709F0BAC01093000089E392E00E94A7
:1013F000F60386E392E00E94F603809109048111CE
:101400000BC0209118043091190480910A04909126
:101410000B0428173907D1F140910C0450910D04A9
:101420002091140430911504429FC001439F900DF8
:10143000529F900D1124209112043091130470E0FA
:1014400060E0820F931F0E946C0C40910A0450913F
:101450000B0480911404909115049A0121503109D4
:101460008217930708F07FC001969093150480932C
:10147000140480911804909119044817590709F42D
:1014800077C0019690931904809318046091180412
:101490007091190490E080E04AE00E94030486E322
:1014A00092E00E94F603809118049091190402972B
:1014B00009F050C08091070490910804009709F04A
:1014C0007AC0809116049091170440910C045091B9
:1014D0000D04849F9001859F300D949F300D112441
:1014E0006091120470911304620F731F20910A041B
:1014F00030910B04215031098217930708F056C030
:101500000196909317048093160440910C04509117
:101510000D04F12CE12CC7010E946C0CD09319042E
:10152000C0931804F701608170E090E080E04AE029
:101530000E9403048AE792E00E94F603F7016181AA
:1015400070E090E080E04AE00E94030486E392E0CD
:101550000E94F6030E94090331CF8E3609F045CF71
:101560001092000042CF109215041092140481CF03
:1015700080910904882309F489CF80910704909110
:101580000804892B09F082CF8091160490911704EA
:101590008217930730F401969093170480931604F2
:1015A00075CF109217041092160470CF1092170482
:1015B00010921604AACF019769F6809114049091B5
:1015C00015040097D9F001979093150480931404A3
:1015D00040910C0450910D04209114043091150495
:1015E000429FC001439F900D529F900D1124609126
:1015F000120470911304680F791F87CF80910A0439
:1016000090910B04E0CF80910304909104040E9418
:10161000E30B80910504909106040E94E30B8091F6
:101620001A0490911B04853A9A4531F48091120472
:10163000909113040C94E30B0895A1E21A2EAA1BB7
:10164000BB1BFD010DC0AA1FBB1FEE1FFF1FA21772
:10165000B307E407F50720F0A21BB30BE40BF50B6F
:10166000661F771F881F991F1A9469F760957095F8
:10167000809590959B01AC01BD01CF010895EE0FBF
:10168000FF1F881F8BBF0790F691E02D19940F93D1
:101690001F93CF93DF938230910510F482E090E0A6
:1016A000E0911E04F0911F0430E020E0B0E0A0E0E3
:1016B000309799F42115310509F44AC0281B390BDC
:1016C00024303105D8F58A819B816115710589F136
:1016D000FB0193838283FE0111C04081518102810D
:1016E000138148175907E0F04817590799F41097E4
:1016F00061F012960C93129713961C933296CF01B9
:10170000DF91CF911F910F91089500931E041093C4
:101710001F04F4CF2115310551F04217530738F05B
:10172000A901DB019A01BD01DF01F801C1CFEF0181
:10173000F9CF90931F0480931E04CDCFFE01E20FDA
:10174000F31F819391932250310939832883D7CF96
:1017500020911C0430911D04232B41F4209112028E
:101760003091130230931D0420931C042091100229
:10177000309111022115310541F42DB73EB740914A
:10178000140250911502241B350BE0911C04F091BA
:101790001D04E217F307A0F42E1B3F0B281739078F
:1017A00078F0AC014E5F5F4F2417350748F04E0FBD
:1017B0005F1F50931D0440931C04819391939FCF0E
:1017C000F0E0E0E09CCFCF93DF930097E9F0FC01DD
:1017D000329713821282A0911E04B0911F04ED0172
:1017E00030E020E01097A1F420813181820F931F17
:1017F00020911C0430911D042817390709F061C09D
:10180000F0931D04E0931C04DF91CF910895EA0149
:10181000CE17DF07E8F54A815B819E01411551052E
:10182000B1F7E901FB83EA8349915991C40FD51FB0
:10183000EC17FD0761F4808191810296840F951F5A
:10184000E90199838883828193819B838A83F0E075
:10185000E0E012968D919C9113970097B9F52D9128
:101860003C911197CD010296820F931F20911C0489
:1018700030911D042817390739F6309751F5109229
:101880001F0410921E04B0931D04A0931C04BCCF2F
:10189000D383C28340815181840F951FC817D90714
:1018A00061F44E5F5F4F88819981480F591F5183C2
:1018B00040838A819B81938382832115310509F0BE
:1018C000B0CFF0931F04E0931E049ECFFD01DC0116
:1018D000C0CF13821282D7CFFB01DC0102C001907E
:1018E0000D9241505040D8F7089511E0C5E4D1E081
:1018F00000E006C0802FFE010E943F0B2196011DD3
:0E190000C634D10780E00807A9F7F894FFCF9E
:10190E000502050205020502050205020502050291
:10191E00000020048000000000009C02060233023A
:10192E00E9026402420256026973206974206D65F1
:10193E0074616C3F20000D0A0061206E6577206D8A
:10194E006D20776974682064657465726D696E6563
:10195E0064206D6574616C2076616C7565206861BC
:10196E0073206265656E20616464656420746F2007
:10197E0074686520717565756500207C7C2000009B
:00000001FF
