:100000000C942A010C94F2050C94C7050C949C05E1
:100010000C9471050C9446050C941B050C94F0048B
:100020000C94C5040C945B010C945B010C945B0173
:100030000C945B010C945B010C945B010C945B01D0
:100040000C945B010C9407070C945B010C945B010E
:100050000C945B010C945B010C945B010C947B048D
:100060000C945B010C9447060C941D060C945B01E8
:100070000C945B010C945B010C945B010C945B0190
:100080000C94D9060C945B010C945B010C945B01FD
:100090000C945B010C945B010C945B010C945B0170
:1000A0000C945B010C945B010C94AB060C945B010B
:1000B0000C945B010C945B010C945B010C947D0629
:1000C0000C945B010C945B010C945B010C945B0140
:1000D0000C945B010C945B010C945B010C945B0130
:1000E0000C945B010C94E3010C946D020C94D1010F
:1000F0000C943C020C94B0010C94D9010C945F0256
:100100000C94B9010C940F020C948D010C94BD0158
:100110000C944B020C940E020C94A4010C94C70195
:100120000C9468090C94B3010C94D5010C94DF0174
:100130000C94A8010C94A5020C94CB010C94AC0176
:100140000C94C3010C9492010C94F2020000210063
:10015000240027002A002D00300033000101000098
:10016000040107010A0100002200250028002B00DD
:100170002E003100340002010000050108010B01CE
:1001800005050505070508080808020202020A0A13
:100190000808040404040101010101010101030331
:1001A000030303030303040707070C0C0C0C0C0CDC
:1001B0000C0C0202020206060606060606060B0BD9
:1001C0000B0B0B0B0B0B010210202008081020401A
:1001D000102040800201020108040201010204080B
:1001E0001020408080402010080402018004020199
:1001F00080402010080402010804020101020408E2
:1002000010204080010204081020408000000A0BEA
:1002100002090C0D0E080703040100000000000095
:1002200000000000000000000000000000000000CE
:10023000000000000000000012111000000000008B
:1002400000000000000000000000000000000000AE
:100250000000680911241FBECFEFD1E2DEBFCDBF81
:1002600000E00CBF12E0A0E0B2E0E6E6F6E100E05C
:100270000BBF02C007900D92A835B107D9F723E054
:10028000A8E5B2E001C01D92A939B207E1F711E07B
:10029000CAE2D1E000E006C021970109802FFE01EB
:1002A0000E94040AC932D10780E00807A9F70E941A
:1002B00035070C94310B0C940000282F30E0F90125
:1002C000E45FFD4F9491F901EA53FE4F44912058A9
:1002D0003E4FF9012491222309F435C0992311F1ED
:1002E00091509231F8F4E92FF0E08827E558FE4F5D
:1002F0008F4F0C94040AAC01B0018D01A401A80138
:100300009201B301B901BD01C301C701CB01D10104
:10031000D5019201D901DF01E301809180008F773F
:1003200080938000E22FF0E0EE0FFF1FEA59FE4FAE
:10033000A591B4918FB7F894EC91611148C04095A4
:100340004E234C938FBF0895809180008F7DE8CF1E
:1003500080918000877FE4CF84B58F7784BDE2CF22
:1003600084B58F7DFBCF8091B0008F778093B000F4
:10037000D9CF8091B0008F7DF9CF809190008F7799
:1003800080939000CFCF809190008F7DF9CF8091A6
:100390009000877FF5CF8091A0008F778093A00099
:1003A000C1CF8091A0008F7DF9CF8091A000877F81
:1003B000F5CF809120018F7780932001B3CF80917A
:1003C00020018F7DF9CF80912001877FF5CF4E2BC3
:1003D000B8CF3FB7F8948091F4029091F502A091C4
:1003E000F602B091F70226B5A89B05C02F3F19F081
:1003F0000196A11DB11D3FBFBA2FA92F982F8827A5
:10040000BC01CD01620F711D811D911D42E0660F7F
:10041000771F881F991F4A95D1F708950895AF92C5
:10042000BF92CF92DF92EF92FF920F931F93CF93E1
:10043000DF936C017B018B01040F151FEB015E0143
:10044000AE18BF08C017D10759F06991D601ED91D8
:10045000FC910190F081E02DC6011995892B79F767
:10046000C501DF91CF911F910F91FF90EF90DF9029
:10047000CF90BF90AF900895FC01538D448D252FF0
:1004800030E0842F90E0821B930B541710F0CF962E
:10049000089501970895FC01918D828D981761F060
:1004A000A28DAE0FBF2FB11D5D968C91928D9F5F77
:1004B0009F73928F90E008958FEF9FEF0895FC0156
:1004C000918D828D981731F0828DE80FF11D858D09
:1004D00090E008958FEF9FEF0895FC01918D228D9C
:1004E000892F90E0805C9F4F821B91098F73992721
:1004F000089588EF92E00E946D0221E0892B09F4B3
:1005000020E0822F0895FC01A48DA80FB92FB11D02
:10051000A35ABF4F2C91848D90E001968F73992739
:10052000848FA689B7892C93A089B1898C91837017
:1005300080648C93938D848D981306C00288F38910
:10054000E02D80818F7D80830895EF92FF920F933D
:100550001F93CF93DF93EC0181E0888F9B8D8C8D6F
:1005600098131AC0E889F989808185FF15C09FB763
:10057000F894EE89FF896083E889F9898081837026
:10058000806480839FBF81E090E0DF91CF911F91D5
:100590000F91FF90EF900895F62E0B8D10E00F5FF6
:1005A0001F4F0F731127E02E8C8D8E110CC00FB6CC
:1005B00007FCFACFE889F989808185FFF5CFCE0164
:1005C0000E948302F1CFEB8DEC0FFD2FF11DE35A5A
:1005D000FF4FF0829FB7F8940B8FEA89FB898081E7
:1005E0008062CFCFCF93DF93EC01888D8823B9F061
:1005F000AA89BB89E889F9898C9185FD03C080812E
:1006000086FD0DC00FB607FCF7CF8C9185FFF2CFAA
:10061000808185FFEDCFCE010E948302E9CFDF917B
:10062000CF91089580E090E0892B29F00E94790213
:1006300081110E94000080E090E0892B49F080E069
:1006400090E0892B29F00E94000081110E94000097
:1006500080E090E0892B49F080E090E0892B29F040
:100660000E94000081110E94000080E090E0892B30
:1006700049F080E090E0892B29F00E940000811170
:100680000C94000008958F929F92AF92BF92FF92B8
:100690000F931F93CF93DF93FC01F0808FE28F15B0
:1006A00008F44AC0828108E512E0081B110987FDA1
:1006B0001395000F111F000F111F8181C8E8D0E0B2
:1006C000C81BD10987FDD395CC0FDD1FCC0FDD1FD3
:1006D0004E010D2E000CAA08BB089801012E000C3B
:1006E000440B550B281939094A095B09DB010E94A3
:1006F000BF0924EB30E040E050E00E949509820EF3
:10070000931EA41EB51E8C169D062CF0E8018016C3
:1007100091060CF4E4012297CC0FDD1F2FB7F8945B
:100720008F2D90E0FC01EE0FFF1FE80FF91FE45A38
:10073000FD4FD283C1832FBFDF91CF911F910F91C6
:10074000FF90BF90AF909F908F900895AF92BF920F
:10075000CF92DF92EF92FF920F931F93CF93DF938D
:100760006B017A01EC01C85ADD4F28813CE0389FCB
:100770008001399F100D1124A090EC02B12C27FFAD
:100780001FC0FB011182108288818F5F888388815E
:100790009801280F311D87FD3A95F6012A153B0572
:1007A0001CF488818C30C4F180819181049680345E
:1007B0009C4908F473C0F60180819181049670C051
:1007C00088819801280F311D87FD3A952A153B0530
:1007D000DCF68881A801480F511D87FD5A95FA0162
:1007E000EE0FFF1FE40FF51FE45AFD4F808186FFD7
:1007F000CBCF8881F801E80FF11D87FDFA95CF0175
:10080000EE0FFF1FE80FF91FE45AFD4F808160E0F3
:100810008F730E945D01B8CF808191812881A801EA
:10082000420F511D27FD5A959A01FA01EE0FFF1F45
:10083000E20FF31FE45AFD4F21813281820F931F93
:10084000F7019183808388819801280F311D87FDEE
:100850003A95F901EE0FFF1FE20FF31FE45AFD4F27
:10086000808186FF22C08881080F111D87FD1A959F
:10087000F801EE0FFF1FE00FF11FE45AFD4F8081DA
:1008800061E08F73DF91CF911F910F91FF90EF90F7
:10089000DF90CF90BF90AF900C945D0180E49CE915
:1008A000F701918380838FEF8883DF91CF911F9130
:1008B0000F91FF90EF90DF90CF90BF90AF90089591
:1008C000FC0101900020E9F73197AF01481B590B5B
:1008D000BC0188EF92E00C940F02CF93DF930E944B
:1008E0006004EC018EE292E00E9460048C0F9D1F78
:1008F000DF91CF9108951F920F920FB60F9211249E
:100900002F933F938F939F93AF93BF938091F00268
:100910009091F102A091F202B091F3023091EF02B6
:1009200023E0230F2D3758F50196A11DB11D20930B
:10093000EF028093F0029093F102A093F202B09341
:10094000F3028091F4029091F502A091F602B09129
:10095000F7020196A11DB11D8093F4029093F50258
:10096000A093F602B093F702BF91AF919F918F9140
:100970003F912F910F900FBE0F901F90189526E872
:10098000230F0296A11DB11DD2CF1F920F920FB659
:100990000F9211240BB60F922F933F934F935F93B7
:1009A0006F937F938F939F93AF93BF93EF93FF9337
:1009B000E0910E02F0910F021995FF91EF91BF9116
:1009C000AF919F918F917F916F915F914F913F91E7
:1009D0002F910F900BBE0F900FBE0F901F90189588
:1009E0001F920F920FB60F9211240BB60F922F93F6
:1009F0003F934F935F936F937F938F939F93AF93A7
:100A0000BF93EF93FF93E0910C02F0910D021995C3
:100A1000FF91EF91BF91AF919F918F917F916F91D6
:100A20005F914F913F912F910F900BBE0F900FBE92
:100A30000F901F9018951F920F920FB60F921124CE
:100A40000BB60F922F933F934F935F936F937F93C8
:100A50008F939F93AF93BF93EF93FF93E091020225
:100A6000F09103021995FF91EF91BF91AF919F9182
:100A70008F917F916F915F914F913F912F910F9047
:100A80000BBE0F900FBE0F901F9018951F920F92E4
:100A90000FB60F9211240BB60F922F933F934F93E3
:100AA0005F936F937F938F939F93AF93BF93EF93D6
:100AB000FF93E0910002F09101021995FF91EF91EF
:100AC000BF91AF919F918F917F916F915F914F9166
:100AD0003F912F910F900BBE0F900FBE0F901F9064
:100AE00018951F920F920FB60F9211240BB60F920A
:100AF0002F933F934F935F936F937F938F939F9326
:100B0000AF93BF93EF93FF93E0910A02F0910B0232
:100B10001995FF91EF91BF91AF919F918F917F9127
:100B20006F915F914F913F912F910F900BBE0F905E
:100B30000FBE0F901F9018951F920F920FB60F9235
:100B400011240BB60F922F933F934F935F936F93A4
:100B50007F938F939F93AF93BF93EF93FF93E09116
:100B60000802F09109021995FF91EF91BF91AF91A1
:100B70009F918F917F916F915F914F913F912F91B5
:100B80000F900BBE0F900FBE0F901F9018951F92E5
:100B90000F920FB60F9211240BB60F922F933F9323
:100BA0004F935F936F937F938F939F93AF93BF9375
:100BB000EF93FF93E0910602F09107021995FF91E0
:100BC000EF91BF91AF919F918F917F916F915F91C5
:100BD0004F913F912F910F900BBE0F900FBE0F9032
:100BE0001F9018951F920F920FB60F9211240BB6FB
:100BF0000F922F933F934F935F936F937F938F93B6
:100C00009F93AF93BF93EF93FF93E0910402F09112
:100C100005021995FF91EF91BF91AF919F918F912F
:100C20007F916F915F914F913F912F910F900BBEEC
:100C30000F900FBE0F901F9018951F920F920FB636
:100C40000F9211240BB60F922F933F934F935F9304
:100C50006F937F938F939F93AF93BF93EF93FF9384
:100C600088EF92E00E948302FF91EF91BF91AF91D4
:100C70009F918F917F916F915F914F913F912F91B4
:100C80000F900BBE0F900FBE0F901F9018951F92E4
:100C90000F920FB60F9211240BB60F922F938F93D2
:100CA0009F93EF93FF93E0910803F09109038081F4
:100CB000E0910E03F0910F0382FD1DC090818091A1
:100CC00011038F5F8F7320911203821741F0E0911F
:100CD0001103F0E0E850FD4F958F80931103FF91D1
:100CE000EF919F918F912F910F900BBE0F900FBEA0
:100CF0000F901F9018958081F2CF1F920F920FB620
:100D00000F9211240BB60F922F933F934F935F9343
:100D10006F937F938F939F93AF93BF93EF93FF93C3
:100D200048E251E064E271E090E080E00E94A603B6
:100D3000FF91EF91BF91AF919F918F917F916F91B3
:100D40005F914F913F912F910F900BBE0F900FBE6F
:100D50000F901F9018951F920F920FB60F921124AB
:100D60000BB60F922F933F934F935F936F937F93A5
:100D70008F939F93AF93BF93EF93FF9348EA50E015
:100D800064EA70E083E090E00E94A603FF91EF9197
:100D9000BF91AF919F918F917F916F915F914F9193
:100DA0003F912F910F900BBE0F900FBE0F901F9091
:100DB00018951F920F920FB60F9211240BB60F9237
:100DC0002F933F934F935F936F937F938F939F9353
:100DD000AF93BF93EF93FF9348E950E064E970E06D
:100DE00082E090E00E94A603FF91EF91BF91AF9146
:100DF0009F918F917F916F915F914F913F912F9133
:100E00000F900BBE0F900FBE0F901F9018951F9262
:100E10000F920FB60F9211240BB60F922F933F93A0
:100E20004F935F936F937F938F939F93AF93BF93F2
:100E3000EF93FF9348E850E064E870E081E090E0D1
:100E40000E94A603FF91EF91BF91AF919F918F9167
:100E50007F916F915F914F913F912F910F900BBEBA
:100E60000F900FBE0F901F901895CF93DF93CDB7C3
:100E7000DEB7A9970FB6F894DEBF0FBECDBF78944A
:100E800084B5826084BD84B5816084BD85B582608F
:100E900085BD85B5816085BD80916E008160809340
:100EA0006E001092810080918100826080938100A9
:100EB00080918100816080938100809180008160B9
:100EC000809380008091B10084608093B100809114
:100ED000B00081608093B000809191008260809327
:100EE00091008091910081608093910080919000A9
:100EF0008160809390008091A10082608093A10026
:100F00008091A10081608093A1008091A000816008
:100F10008093A000809121018260809321018091C3
:100F20002101816080932101809120018160809363
:100F3000200180917A00846080937A0080917A0009
:100F4000826080937A0080917A00816080937A0039
:100F500080917A00806880937A001092C10084E0CA
:100F600090E00E940C0A8C0183E090E00E940C0A41
:100F7000DC018091EC02803308F04BC191E0980FC6
:100F80009093EC028C9390E0FC01EE0FFF1FE80FB2
:100F9000F91FE45AFD4F88EB9BE092838183F801AF
:100FA000B383A2838C91803308F06AC0EDECF1E04A
:100FB0002491E7E8F1E084918823A1F090E0880F84
:100FC000991FFC01E45BFE4F45915491FC01EA59E5
:100FD000FE4F859194918FB7F894FA019081922BEE
:100FE00090838FBF8C91282F30E0F901EE0FFF1F07
:100FF000E20FF31FE45AFD4F9081907C976090833D
:1010000011961C92119712961C9212972CE0622F47
:101010000E94F809829FB001112430E020E0AB016A
:10102000420F531FFA01EE0FFF1FE40FF51FE45AA2
:10103000FD4F908196FD17C02F5F3F4F2C3031053B
:1010400071F7813009F0E8C01092800082E080934F
:1010500081001092850010928400B19A80916F00F7
:10106000826080936F00EC918E2F90E0FC01EE0F78
:10107000FF1FE80FF91FE45AFD4F808180648083D1
:101080001093EE020093ED02E0910803F091090342
:1010900082E08083E0910403F09105031082E091E7
:1010A0000603F09107038FEC808310921003E09108
:1010B0000C03F0910D0386E08083E0910A03F09128
:1010C0000B03808180618083E0910A03F0910B0320
:1010D000808188608083E0910A03F0910B03808116
:1010E00080688083E0910A03F0910B0380818F7DFB
:1010F00080831E01F8E22F0E311C9AE0892E912C7C
:10110000A12CB12C86E0E6E1F2E0DE01929601909E
:101110000D928A95E1F7CE01829699A788A7E8A556
:10112000F9A501911191F9A7E8A781E392E00E9446
:1011300060042801012E000C6608770877FE98C02D
:101140006DE288EF92E00E94A50222273327A901D1
:10115000241935094609570919A2CE0181967C0147
:10116000CA01B901A50194010E94C709605DF70198
:1011700062937F01211531054105510589F7E1147D
:10118000F10419F0C7010E9460048EE292E00E940F
:101190006004E090ED02F090EE020130110509F4D8
:1011A00089C008F47BC00230110509F48AC08EE2C0
:1011B00092E00E9460040E94E9016B017C0180EDD5
:1011C000482E87E0582E612C712C0E94E9016C1981
:1011D0007D098E099F09683E734081059105A8F33A
:1011E000F1E04F1A51086108710828EEC20E23E0A1
:1011F000D21EE11CF11C411451046104710429F751
:1012000088A599A52816390609F089CF0E941203EE
:1012100079CF8FEF8C93C3CE823061F4109290001F
:1012200080939100109295001092940088BB809357
:10123000710019CF833069F41092A00082E080938E
:10124000A1001092A5001092A40089BB80937200A7
:101250000ACF811108CF1092200182E080932101F2
:1012600010922501109224018ABB80937300FBCE5B
:10127000A301920119A2CE0181967C01CA01B90194
:10128000A50194010E94C709605DF70162937F0187
:10129000211531054105510589F771CF8DE392E0A4
:1012A0000E946D0470E060E0F701828193810E94EA
:1012B00043037DCF84E492E00E946D046AE570E010
:1012C000F3CF8BE492E00E946D0464EB70E0ECCF0E
:1012D000E8EFF2E01382128288EE93E0A0E0B0E043
:1012E00084839583A683B78380E292E09183808391
:1012F00085EC90E09587848784EC90E097878687DB
:1013000080EC90E0918B808B81EC90E0938B828BD2
:1013100082EC90E0958B848B86EC90E0978B868BAB
:10132000118E128E138E148E0895052E97FB1EF4C7
:1013300000940E94AC0957FD07D00E94C70907FC22
:1013400003D04EF40C94AC095095409530952195FE
:101350003F4F4F4F5F4F08959095809570956195E1
:101360007F4F8F4F9F4F08950E94E909A59F900DD1
:10137000B49F900DA49F800D911D11240895B7FF77
:101380000C94B4090E94B409821B930B0895A1E246
:101390001A2EAA1BBB1BFD010DC0AA1FBB1FEE1FEF
:1013A000FF1FA217B307E407F50720F0A21BB30B3A
:1013B000E40BF50B661F771F881F991F1A9469F7B6
:1013C00060957095809590959B01AC01BD01CF0112
:1013D0000895A29FB001B39FC001A39F700D811D0E
:1013E0001124911DB29F700D811D1124911D08952E
:1013F000991B79E004C0991F961708F0961B881F67
:101400007A95C9F780950895EE0FFF1F881F8BBF4F
:101410000790F691E02D19940F931F93CF93DF93CC
:101420008230910510F482E090E0E0919703F09112
:10143000980330E020E0B0E0A0E0309799F4211567
:10144000310509F44AC0281B390B24303105D8F581
:101450008A819B816115710589F1FB0193838283E8
:10146000FE0111C040815181028113814817590743
:10147000E0F04817590799F4109761F012960C9311
:10148000129713961C933296CF01DF91CF911F9143
:101490000F9108950093970310939803F4CF2115AB
:1014A000310551F04217530738F0A901DB019A01C9
:1014B000BD01DF01F801C1CFEF01F9CF909398038F
:1014C00080939703CDCFFE01E20FF31F8193919399
:1014D0002250310939832883D7CF20919503309149
:1014E0009603232B41F42091120230911302309382
:1014F000960320939503209110023091110221153B
:10150000310541F42DB73EB74091140250911502B8
:10151000241B350BE0919503F0919603E217F30736
:10152000A0F42E1B3F0B2817390778F0AC014E5F53
:101530005F4F2417350748F04E0F5F1F50939603F7
:1015400040939503819391939FCFF0E0E0E09CCF8F
:10155000CF93DF930097E9F0FC0132971382128258
:10156000A0919703B0919803ED0130E020E010972F
:10157000A1F420813181820F931F20919503309136
:1015800096032817390709F061C0F0939603E0939A
:101590009503DF91CF910895EA01CE17DF07E8F5B3
:1015A0004A815B819E0141155105B1F7E901FB8339
:1015B000EA8349915991C40FD51FEC17FD0761F4D7
:1015C000808191810296840F951FE9019983888318
:1015D000828193819B838A83F0E0E0E012968D9173
:1015E0009C9113970097B9F52D913C911197CD01DE
:1015F0000296820F931F209195033091960328172E
:10160000390739F6309751F51092980310929703E5
:10161000B0939603A0939503BCCFD383C28340813C
:101620005181840F951FC817D90761F44E5F5F4F32
:1016300088819981480F591F518340838A819B81FA
:10164000938382832115310509F0B0CFF09398037D
:10165000E09397039ECFFD01DC01C0CF138212827D
:06166000D7CFF894FFCF84
:101666000E020E020E020E020E020E020E020E02F4
:101676000000990380000000010002000000000045
:10168600A5020F023C02F2026D024B025F020D0A36
:10169600004D6F76696E6720746F3A2000434C4F99
:1016A600534544004255434B4554004E455854203B
:0816B6004D4F44554C45000066
:00000001FF
