:100000000C942D010C94DA050C94AF050C94840526
:100010000C9459050C942E050C9403050C94D804EB
:100020000C94AD040C945E010C945E010C945E0182
:100030000C945E010C945E010C945E010C945E01C4
:100040000C945E010C94EF060C945E010C945E011E
:100050000C945E010C945E010C945E010C9463049C
:100060000C945E010C942F060C9405060C945E0112
:100070000C945E010C945E010C945E010C945E0184
:100080000C94C1060C945E010C945E010C945E010C
:100090000C945E010C945E010C945E010C945E0164
:1000A0000C945E010C945E010C9493060C945E011A
:1000B0000C945E010C945E010C945E010C94650638
:1000C0000C945E010C945E010C945E010C945E0134
:1000D0000C945E010C945E010C945E010C945E0124
:1000E0000C945E010C94D8010C94E2010C94F5027E
:1000F0000C941D070C941D090C944E020C94700274
:100100000C94AB010C94CA010C94D4010C94A80279
:100110000C9490010C94CE010C94B6010C94BC018B
:100120000C9462020C94DC010C94C0010C94E60166
:100130000C94A7010C94B3010C94AF010C943F02F2
:100140000C94C6010C9412020C9411020C949501AB
:1001500000000A0B02090C0D0E0807030401000041
:10016000000000000000000000000000000000008F
:10017000000000000000000000000000121110004C
:10018000000000000000000000000000000000006F
:1001900000000000000000002200250028002B00C5
:1001A0002E003100340002010000050108010B019E
:1001B00000002100240027002A002D003000330019
:1001C00001010000040107010A01050505050705F5
:1001D00008080808020202020A0A080804040404C3
:1001E00001010101010101010303030303030303EF
:1001F000040707070C0C0C0C0C0C0C0C020202027E
:1002000006060606060606060B0B0B0B0B0B0B0B66
:100210000102102020080810204010204080020118
:1002200002010804020101020408102040808040FD
:1002300020100804020180040201804020100804FC
:10024000020108040201010204081020408001029A
:100250000408102040801D071D0911241FBECFEF88
:10026000D1E2DEBFCDBF00E00CBF12E0A0E0B2E003
:10027000EAEBF5E100E00BBF02C007900D92AE3251
:10028000B107D9F723E0AEE2B2E001C01D92A13779
:10029000B207E1F711E0CCE2D1E000E006C021971F
:1002A0000109802FFE010E949E09CB32D10780E018
:1002B0000807A9F70E941E080C94CB0A0C940000B2
:1002C000282F30E0F901E05BFE4F9491F901E05FE7
:1002D000FD4F449126533E4FF9012491222309F406
:1002E00035C0992311F191509231F8F4E92FF0E0E3
:1002F0008827E258FE4F8F4F0C949E09AF01B3013F
:100300009001A701AB019501B601BC01C001C60176
:10031000CA01CE01D401D8019501DC01E201E60158
:10032000809180008F7780938000E22FF0E0EE0FC5
:10033000FF1FEA56FE4FA591B4918FB7F894EC9148
:10034000611148C040954E234C938FBF0895809112
:1003500080008F7DE8CF80918000877FE4CF84B5D7
:100360008F7784BDE2CF84B58F7DFBCF8091B000C5
:100370008F778093B000D9CF8091B0008F7DF9CF77
:10038000809190008F7780939000CFCF80919000E4
:100390008F7DF9CF80919000877FF5CF8091A0006D
:1003A0008F778093A000C1CF8091A0008F7DF9CF7F
:1003B0008091A000877FF5CF809120018F77809377
:1003C0002001B3CF809120018F7DF9CF8091200152
:1003D000877FF5CF4E2BB8CF3FB7F8948091370287
:1003E00090913802A0913902B0913A0226B5A89BAB
:1003F00005C02F3F19F00196A11DB11D3FBFBA2FB7
:10040000A92F982F8827BC01CD01620F711D811D76
:10041000911D42E0660F771F881F991F4A95D1F7FB
:1004200008950895AF92BF92CF92DF92EF92FF921C
:100430000F931F93CF93DF936C017B018B01040F0C
:10044000151FEB015E01AE18BF08C017D10759F0A8
:100450006991D601ED91FC910190F081E02DC601EA
:100460001995892B79F7C501DF91CF911F910F91D4
:10047000FF90EF90DF90CF90BF90AF900895FC0178
:10048000538D448D252F30E0842F90E0821B930BF9
:10049000541710F0CF96089501970895FC01918D9F
:1004A000828D981761F0A28DAE0FBF2FB11D5D96A2
:1004B0008C91928D9F5F9F73928F90E008958FEF44
:1004C0009FEF0895FC01918D828D981731F0828DF8
:1004D000E80FF11D858D90E008958FEF9FEF08954F
:1004E000FC01918D228D892F90E0805C9F4F821BB3
:1004F00091098F73992708958BE392E00E9470020F
:1005000021E0892B09F420E0822F0895FC01A48DBD
:10051000A80FB92FB11DA35ABF4F2C91848D90E025
:1005200001968F739927848FA689B7892C93A08908
:10053000B1898C91837080648C93938D848D981392
:1005400006C00288F389E02D80818F7D8083089525
:10055000EF92FF920F931F93CF93DF93EC0181E013
:10056000888F9B8D8C8D98131AC0E889F9898081BA
:1005700085FF15C09FB7F894EE89FF896083E889ED
:10058000F98980818370806480839FBF81E090E0DF
:10059000DF91CF911F910F91FF90EF900895F62E6C
:1005A0000B8D10E00F5F1F4F0F731127E02E8C8D06
:1005B0008E110CC00FB607FCFACFE889F98980814B
:1005C00085FFF5CFCE010E948602F1CFEB8DEC0FB7
:1005D000FD2FF11DE35AFF4FF0829FB7F8940B8F68
:1005E000EA89FB8980818062CFCFCF93DF93EC01D2
:1005F000888D8823B9F0AA89BB89E889F9898C910B
:1006000085FD03C0808186FD0DC00FB607FCF7CFC6
:100610008C9185FFF2CF808185FFEDCFCE010E94C6
:100620008602E9CFDF91CF91089580E090E0892B99
:1006300029F00E947C0281110E94000080E090E07D
:10064000892B49F080E090E0892B29F00E9400007E
:1006500081110E94000080E090E0892B49F080E049
:1006600090E0892B29F00E94000081110E94000077
:1006700080E090E0892B49F080E090E0892B29F020
:100680000E94000081110C94000008958F929F92A7
:10069000AF92BF92FF920F931F93CF93DF93FC0112
:1006A000F0808FE28F1508F44AC0828108E512E0DD
:1006B000081B110987FD1395000F111F000F111F53
:1006C0008181C8E8D0E0C81BD10987FDD395CC0F44
:1006D000DD1FCC0FDD1F4E010D2E000CAA08BB083C
:1006E0009801012E000C440B550B281939094A09B1
:1006F0005B09DB010E94590924EB30E040E050E047
:100700000E942F09820E931EA41EB51E8C169D06F4
:100710002CF0E801801691060CF4E4012297CC0F2E
:10072000DD1F2FB7F8948F2D90E0FC01EE0FFF1F17
:10073000E80FF91FE852FD4FD283C1832FBFDF912D
:10074000CF911F910F91FF90BF90AF909F908F908E
:100750000895AF92BF92CF92DF92EF92FF920F93E4
:100760001F93CF93DF936B017A01EC01C25DDD4FE4
:1007700028813CE0389F8001399F100D1124A09002
:100780006803B12C27FF1FC0FB01118210828881F2
:100790008F5F888388819801280F311D87FD3A95E6
:1007A000F6012A153B051CF488818C30C4F1808148
:1007B0009181049680349C4908F473C0F6018081CD
:1007C0009181049670C088819801280F311D87FDA2
:1007D0003A952A153B05DCF68881A801480F511D82
:1007E00087FD5A95FA01EE0FFF1FE40FF51FE8523F
:1007F000FD4F808186FFCBCF8881F801E80FF11D86
:1008000087FDFA95CF01EE0FFF1FE80FF91FE852A1
:10081000FD4F808160E08F730E946001B8CF8081BE
:1008200091812881A801420F511D27FD5A959A01F7
:10083000FA01EE0FFF1FE20FF31FE852FD4F218177
:100840003281820F931FF701918380838881980101
:10085000280F311D87FD3A95F901EE0FFF1FE20FBA
:10086000F31FE852FD4F808186FF22C08881080F68
:10087000111D87FD1A95F801EE0FFF1FE00FF11F04
:10088000E852FD4F808161E08F73DF91CF911F911E
:100890000F91FF90EF90DF90CF90BF90AF900C94AE
:1008A000600180E49CE9F701918380838FEF888366
:1008B000DF91CF911F910F91FF90EF90DF90CF903C
:1008C000BF90AF9008951F920F920FB60F92112410
:1008D0002F933F938F939F93AF93BF938091330256
:1008E00090913402A0913502B091360230913202DB
:1008F00023E0230F2D3758F50196A11DB11D20933C
:1009000032028093330290933402A0933502B09365
:1009100036028091370290913802A0913902B0914D
:100920003A020196A11DB11D8093370290933802BF
:10093000A0933902B0933A02BF91AF919F918F91EA
:100940003F912F910F900FBE0F901F90189526E8A2
:10095000230F0296A11DB11DD2CF1F920F920FB689
:100960000F9211240BB60F922F933F934F935F93E7
:100970006F937F938F939F93AF93BF93EF93FF9367
:10098000E0910E02F0910F021995FF91EF91BF9146
:10099000AF919F918F917F916F915F914F913F9117
:1009A0002F910F900BBE0F900FBE0F901F901895B8
:1009B0001F920F920FB60F9211240BB60F922F9326
:1009C0003F934F935F936F937F938F939F93AF93D7
:1009D000BF93EF93FF93E0910C02F0910D021995F4
:1009E000FF91EF91BF91AF919F918F917F916F9107
:1009F0005F914F913F912F910F900BBE0F900FBEC3
:100A00000F901F9018951F920F920FB60F921124FE
:100A10000BB60F922F933F934F935F936F937F93F8
:100A20008F939F93AF93BF93EF93FF93E091020255
:100A3000F09103021995FF91EF91BF91AF919F91B2
:100A40008F917F916F915F914F913F912F910F9077
:100A50000BBE0F900FBE0F901F9018951F920F9214
:100A60000FB60F9211240BB60F922F933F934F9313
:100A70005F936F937F938F939F93AF93BF93EF9306
:100A8000FF93E0910002F09101021995FF91EF911F
:100A9000BF91AF919F918F917F916F915F914F9196
:100AA0003F912F910F900BBE0F900FBE0F901F9094
:100AB00018951F920F920FB60F9211240BB60F923A
:100AC0002F933F934F935F936F937F938F939F9356
:100AD000AF93BF93EF93FF93E0910A02F0910B0263
:100AE0001995FF91EF91BF91AF919F918F917F9158
:100AF0006F915F914F913F912F910F900BBE0F908F
:100B00000FBE0F901F9018951F920F920FB60F9265
:100B100011240BB60F922F933F934F935F936F93D4
:100B20007F938F939F93AF93BF93EF93FF93E09146
:100B30000802F09109021995FF91EF91BF91AF91D1
:100B40009F918F917F916F915F914F913F912F91E5
:100B50000F900BBE0F900FBE0F901F9018951F9215
:100B60000F920FB60F9211240BB60F922F933F9353
:100B70004F935F936F937F938F939F93AF93BF93A5
:100B8000EF93FF93E0910602F09107021995FF9110
:100B9000EF91BF91AF919F918F917F916F915F91F5
:100BA0004F913F912F910F900BBE0F900FBE0F9062
:100BB0001F9018951F920F920FB60F9211240BB62B
:100BC0000F922F933F934F935F936F937F938F93E6
:100BD0009F93AF93BF93EF93FF93E0910402F09143
:100BE00005021995FF91EF91BF91AF919F918F9160
:100BF0007F916F915F914F913F912F910F900BBE1D
:100C00000F900FBE0F901F9018951F920F920FB666
:100C10000F9211240BB60F922F933F934F935F9334
:100C20006F937F938F939F93AF93BF93EF93FF93B4
:100C30008BE392E00E948602FF91EF91BF91AF910A
:100C40009F918F917F916F915F914F913F912F91E4
:100C50000F900BBE0F900FBE0F901F9018951F9214
:100C60000F920FB60F9211240BB60F922F938F9302
:100C70009F93EF93FF93E0914B02F0914C028081A0
:100C8000E0915102F091520282FD1DC0908180914D
:100C900054028F5F8F7320915502821741F0E091CB
:100CA0005402F0E0E55CFD4F958F80935402FF9174
:100CB000EF919F918F912F910F900BBE0F900FBED0
:100CC0000F901F9018958081F2CF1F920F920FB650
:100CD0000F9211240BB60F922F933F934F935F9374
:100CE0006F937F938F939F93AF93BF93EF93FF93F4
:100CF00048E251E064E271E090E080E00E94A903E4
:100D0000FF91EF91BF91AF919F918F917F916F91E3
:100D10005F914F913F912F910F900BBE0F900FBE9F
:100D20000F901F9018951F920F920FB60F921124DB
:100D30000BB60F922F933F934F935F936F937F93D5
:100D40008F939F93AF93BF93EF93FF9348EA50E045
:100D500064EA70E083E090E00E94A903FF91EF91C4
:100D6000BF91AF919F918F917F916F915F914F91C3
:100D70003F912F910F900BBE0F900FBE0F901F90C1
:100D800018951F920F920FB60F9211240BB60F9267
:100D90002F933F934F935F936F937F938F939F9383
:100DA000AF93BF93EF93FF9348E950E064E970E09D
:100DB00082E090E00E94A903FF91EF91BF91AF9173
:100DC0009F918F917F916F915F914F913F912F9163
:100DD0000F900BBE0F900FBE0F901F9018951F9293
:100DE0000F920FB60F9211240BB60F922F933F93D1
:100DF0004F935F936F937F938F939F93AF93BF9323
:100E0000EF93FF9348E850E064E870E081E090E001
:100E10000E94A903FF91EF91BF91AF919F918F9194
:100E20007F916F915F914F913F912F910F900BBEEA
:100E30000F900FBE0F901F901895CF93DF931092D5
:100E40003E0210923D0288EE93E0A0E0B0E0809375
:100E50003F0290934002A0934102B093420280E28D
:100E600092E090933C0280933B0285EC90E090935B
:100E700048028093470284EC90E090934A0280936A
:100E8000490280EC90E090934C0280934B0281ECFD
:100E900090E090934E0280934D0282EC90E090930C
:100EA000500280934F0286EC90E090935202809320
:100EB0005102109254021092550210925602109252
:100EC000570283E090E00E94A609DC01809168034C
:100ED000803308F084C091E0980F909368038C935E
:100EE00090E0FC01EE0FFF1FE80FF91FE852FD4FE5
:100EF00088EB9BE092838183B0936C03A0936B0398
:100F00008C91803308F068C0E7E1F2E02491E1EDD4
:100F1000F1E08491882399F090E0880F991FFC01FB
:100F2000E055FE4FC591D491FC01EA56FE4F8591E4
:100F300094918FB7F894E881E22BE8838FBF8C916E
:100F4000282F30E0F901EE0FFF1FE20FF31FE852E8
:100F5000FD4F9081907C9760908311961C92119721
:100F600012961C9212972CE0622F0E949209829F87
:100F7000B001112430E020E0AB01420F531FFA0111
:100F8000EE0FFF1FE40FF51FE852FD4F908196FD15
:100F900016C02F5F3F4F2C30310571F7813011F5AE
:100FA0001092800082E08093810010928500109260
:100FB0008400B19A80916F00826080936F00EC9101
:100FC0008E2F90E0FC01EE0FFF1FE80FF91FE85293
:100FD000FD4F808180648083DF91CF9108958FEFF2
:100FE0008C938ACF823061F41092900080939100AC
:100FF000109295001092940088BB80937100DFCF0F
:10100000833069F41092A00082E08093A1001092D6
:10101000A5001092A40089BB80937200D0CF8111EB
:10102000CECF1092200182E0809321011092250101
:10103000109224018ABB80937300C1CFCF93DF93BA
:1010400000D000D0CDB7DEB7789484B5826084BD7F
:1010500084B5816084BD85B5826085BD85B58160BC
:1010600085BD80916E00816080936E00109281003A
:1010700080918100826080938100809181008160F5
:1010800080938100809180008160809380008091B6
:10109000B10084608093B1008091B0008160809342
:1010A000B0008091910082608093910080919100C6
:1010B0008160809391008091900081608093900086
:1010C0008091A10082608093A1008091A100816045
:1010D0008093A1008091A00081608093A000809106
:1010E00021018260809321018091210181608093A0
:1010F00021018091200181608093200180917A00FC
:10110000846080937A0080917A00826080937A0074
:1011100080917A00816080937A0080917A00806863
:1011200080937A001092C100E0914B02F0914C0242
:1011300082E08083E0914702F09148021082E091C2
:101140004902F0914A028FEC808310925302E091A1
:101150004F02F091500286E08083E0914D02F091C1
:101160004E02808180618083E0914D02F0914E02B9
:10117000808188608083E0914D02F0914E028081F1
:1011800080688083E0914D02F0914E0280818F7DD6
:1011900080835E0127E0A20EB11C86E0E6E1F2E06A
:1011A000DE01119601900D928A95E1F78E010F5F95
:1011B0001F4FF801819191918F0181309105B9F113
:1011C00068F10297B9F10E94EC012B013C0184EF18
:1011D000C82EDD24D394E12CF12C0E94EC0164197B
:1011E000750986099709683E734081059105A8F342
:1011F000F1E0CF1AD108E108F10828EE420E23E011
:10120000521E611C711CC114D104E104F10429F7C0
:10121000A016B10671F60E941503BFCF6DE270E013
:1012200080916B0390916C030E944603CCCF6AE5DA
:1012300070E0F6CF67E870E0F3CFE0916B03F091D8
:101240006C03E0818E2F90E0FC01EE0FFF1FE80F92
:10125000F91FE852FD4F80818F7B80830895052E12
:1012600097FB1EF400940E94460957FD07D00E9488
:10127000610907FC03D04EF40C9446095095409543
:10128000309521953F4F4F4F5F4F08959095809532
:10129000709561957F4F8F4F9F4F08950E948309EE
:1012A000A59F900DB49F900DA49F800D911D1124BA
:1012B0000895B7FF0C944E090E944E09821B930BB0
:1012C0000895A1E21A2EAA1BBB1BFD010DC0AA1F87
:1012D000BB1FEE1FFF1FA217B307E407F50720F09F
:1012E000A21BB30BE40BF50B661F771F881F991F1A
:1012F0001A9469F760957095809590959B01AC0163
:10130000BD01CF010895A29FB001B39FC001A39F6B
:10131000700D811D1124911DB29F700D811D11242E
:10132000911D0895991B79E004C0991F961708F044
:10133000961B881F7A95C9F780950895EE0FFF1FB9
:10134000881F8BBF0790F691E02D19940F931F9380
:10135000CF93DF938230910510F482E090E0E0912A
:101360006F03F091700330E020E0B0E0A0E0309730
:1013700099F42115310509F44AC0281B390B243092
:101380003105D8F58A819B816115710589F1FB01D1
:1013900093838283FE0111C04081518102811381B8
:1013A00048175907E0F04817590799F4109761F06A
:1013B00012960C93129713961C933296CF01DF91DD
:1013C000CF911F910F91089500936F0310937003B5
:1013D000F4CF2115310551F04217530738F0A90118
:1013E000DB019A01BD01DF01F801C1CFEF01F9CFA7
:1013F0009093700380936F03CDCFFE01E20FF31F34
:10140000819391932250310939832883D7CF20913A
:101410006D0330916E03232B41F420911202309121
:10142000130230936E0320936D03209110023091CC
:1014300011022115310541F42DB73EB74091140238
:1014400050911502241B350BE0916D03F0916E0352
:10145000E217F307A0F42E1B3F0B2817390778F08B
:10146000AC014E5F5F4F2417350748F04E0F5F1FEA
:1014700050936E0340936D03819391939FCFF0E05F
:10148000E0E09CCFCF93DF930097E9F0FC01329727
:1014900013821282A0916F03B0917003ED0130E0CE
:1014A00020E01097A1F420813181820F931F2091B9
:1014B0006D0330916E032817390709F061C0F0936E
:1014C0006E03E0936D03DF91CF910895EA01CE178B
:1014D000DF07E8F54A815B819E0141155105B1F7AF
:1014E000E901FB83EA8349915991C40FD51FEC1799
:1014F000FD0761F4808191810296840F951FE901B7
:1015000099838883828193819B838A83F0E0E0E0E2
:1015100012968D919C9113970097B9F52D913C915E
:101520001197CD010296820F931F20916D03309188
:101530006E032817390739F6309751F5109270036A
:1015400010926F03B0936E03A0936D03BCCFD3834F
:10155000C28340815181840F951FC817D90761F458
:101560004E5F5F4F88819981480F591F5183408397
:101570008A819B81938382832115310509F0B0CF45
:10158000F0937003E0936F039ECFFD01DC01C0CFA9
:1015900013821282D7CF11E0CCE2D1E000E006C086
:1015A000802FFE010E949E092196011DCD32D10798
:0A15B00080E00807A9F7F894FFCFC8
:1015BA001102110211021102110211021102110289
:1015CA00000071038000000001000200000000001A
:0E15DA00A80212023F02F50270024E026202E7
:00000001FF
