:100000000C944A010C947B010C947B010C947B01B1
:100010000C947B010C947B010C947B010C947B0170
:100020000C947B010C947B010C947B010C947B0160
:100030000C947B010C947B010C947B010C947B0150
:100040000C947B010C947B010C947B010C947B0140
:100050000C947B010C947B010C947B010C946E033B
:100060000C947B010C94E2030C94B8030C947B0178
:100070000C947B010C947B010C947B010C947B0110
:100080000C947B010C947B010C947B010C947B0100
:100090000C947B010C947B010C947B010C947B01F0
:1000A0000C947B010C947B010C947B010C947B01E0
:1000B0000C947B010C947B010C947B010C947B01D0
:1000C0000C947B010C947B010C947B010C947B01C0
:1000D0000C947B010C947B010C947B010C947B01B0
:1000E0000C947B010C9467020C940C050C94DD01BC
:1000F0000C94D9010C9403020C94C4010C94F501E6
:100100000C9416050C94F9010C94AD010C94710536
:100110000C9499050C949E050C94B2010C9407055F
:100120000C94E3010C944E050C9498020C947B05FE
:100130000C9420050C948A020C94E7010C94EB01BA
:100140000C94D3010C941D030C9458050C94CC0111
:100150000C94F1010C9467050C948F050C947602B5
:100160000C94D0010C9485050C9444050C94D00299
:100170000C94FF010C943A020C94C8010C943205C3
:100180000C9400050C943A050C942A0500002100FB
:10019000240027002A002D00300033000101000058
:1001A000040107010A0100002200250028002B009D
:1001B0002E003100340002010000050108010B018E
:1001C00005050505070508080808020202020A0AD3
:1001D00008080404040401010101010101010303F1
:1001E000030303030303040707070C0C0C0C0C0C9C
:1001F0000C0C0202020206060606060606060B0B99
:100200000B0B0B0B0B0B01021020200808102040D9
:1002100010204080020102010804020101020408CA
:100220001020408080402010080402018004020158
:1002300080402010080402010804020101020408A1
:1002400010204080010204081020408000000A0BAA
:1002500002090C0D0E080703040100000000000055
:10026000000000000000000000000000000000008E
:10027000000000000000000012111000000000004B
:10028000000000000000000000000000000000006E
:1002900000009E0511241FBECFEFD1E2DEBFCDBF0F
:1002A00000E00CBF12E0A0E0B2E0EAEAFBE000E010
:1002B0000BBF02C007900D92A231B107D9F722E01F
:1002C000A2E1B2E001C01D92A83BB207E1F711E044
:1002D000CAE4D1E000E006C021970109802FFE01A9
:1002E0000E94CB05C934D10780E00807A9F70E9416
:1002F00018040C94D3050C940000282F30E0F90169
:10030000E45BFD4F9491F901EA5FFD4F4491205465
:100310003E4FF9012491222309F435C0992311F1AC
:1003200091509231F8F4E92FF0E08827E556FE4F1E
:100330008F4F0C94CB05CC01D001AD01C401C80195
:10034000B201D301D901DD01E301E701EB01F101C4
:10035000F501B201F901FF010302809180008F775E
:1003600080938000E22FF0E0EE0FFF1FEA55FE4F72
:10037000A591B4918FB7F894EC91611148C0409564
:100380004E234C938FBF0895809180008F7DE8CFDE
:1003900080918000877FE4CF84B58F7784BDE2CFE2
:1003A00084B58F7DFBCF8091B0008F778093B000B4
:1003B000D9CF8091B0008F7DF9CF809190008F7759
:1003C00080939000CFCF809190008F7DF9CF809166
:1003D0009000877FF5CF8091A0008F778093A00059
:1003E000C1CF8091A0008F7DF9CF8091A000877F41
:1003F000F5CF809120018F7780932001B3CF80913A
:1004000020018F7DF9CF80912001877FF5CF4E2B82
:10041000B8CFCF93DF9390E0FC01EA5FFD4F2491CA
:1004200080549E4FFC0184918823D1F090E0880F86
:10043000991FFC01E457FE4FA591B491FC01EA55C8
:10044000FE4FC591D49161110EC09FB7F8948C9165
:10045000E22FE0958E238C932881E223E8839FBFCF
:10046000DF91CF9108958FB7F894EC91E22BEC9344
:100470008FBFF6CFAF92BF92CF92DF92EF92FF92F3
:100480000F931F93CF93DF936C017B018B01040FBC
:10049000151FEB015E01AE18BF08C017D10759F058
:1004A0006991D601ED91FC910190F081E02DC6019A
:1004B0001995892B79F7C501DF91CF911F910F9184
:1004C000FF90EF90DF90CF90BF90AF900895FC0128
:1004D000538D448D252F30E0842F90E0821B930BA9
:1004E000541710F0CF96089501970895FC01918D4F
:1004F000828D981761F0A28DAE0FBF2FB11D5D9652
:100500008C91928D9F5F9F73928F90E008958FEFF3
:100510009FEF0895FC01918D828D981731F0828DA7
:10052000E80FF11D858D90E008958FEF9FEF0895FE
:10053000FC01918D228D892F90E0805C9F4F821B62
:1005400091098F739927089582E192E00E949802A1
:1005500021E0892B09F420E0822F0895FC01A48D6D
:10056000A80FB92FB11DA35ABF4F2C91848D90E0D5
:1005700001968F739927848FA689B7892C93A089B8
:10058000B1898C91837080648C93938D848D981342
:1005900006C00288F389E02D80818F7D80830895D5
:1005A000EF92FF920F931F93CF93DF93EC0181E0C3
:1005B000888F9B8D8C8D98131AC0E889F98980816A
:1005C00085FF15C09FB7F894EE89FF896083E8899D
:1005D000F98980818370806480839FBF81E090E08F
:1005E000DF91CF911F910F91FF90EF900895F62E1C
:1005F0000B8D10E00F5F1F4F0F731127E02E8C8DB6
:100600008E110CC00FB607FCFACFE889F9898081FA
:1006100085FFF5CFCE010E94AE02F1CFEB8DEC0F3E
:10062000FD2FF11DE35AFF4FF0829FB7F8940B8F17
:10063000EA89FB8980818062CFCFCF93DF93EC0181
:10064000888D8823B9F0AA89BB89E889F9898C91BA
:1006500085FD03C0808186FD0DC00FB607FCF7CF76
:100660008C9185FFF2CF808185FFEDCFCE010E9476
:10067000AE02E9CFDF91CF91089580E090E0892B21
:1006800029F00E94A40281110E94000080E090E005
:10069000892B49F080E090E0892B29F00E9400002E
:1006A00081110E94000080E090E0892B49F080E0F9
:1006B00090E0892B29F00E94000081110E94000027
:1006C00080E090E0892B49F080E090E0892B29F0D0
:1006D0000E94000081110C94000008951F920F9257
:1006E0000FB60F9211242F933F938F939F93AF9345
:1006F000BF938091B4029091B502A091B602B091DF
:10070000B7023091B30223E0230F2D3758F501963D
:10071000A11DB11D2093B3028093B4029093B50242
:10072000A093B602B093B7028091AF029091B0024D
:10073000A091B102B091B2020196A11DB11D8093AA
:10074000AF029093B002A093B102B093B202BF91F6
:10075000AF919F918F913F912F910F900FBE0F906E
:100760001F90189526E8230F0296A11DB11DD2CF28
:100770001F920F920FB60F9211240BB60F922F9368
:100780003F934F935F936F937F938F939F93AF9319
:10079000BF93EF93FF9382E192E00E94AE02FF913C
:1007A000EF91BF91AF919F918F917F916F915F91E9
:1007B0004F913F912F910F900BBE0F900FBE0F9056
:1007C0001F9018951F920F920FB60F9211240BB61F
:1007D0000F922F938F939F93EF93FF93E0912202B9
:1007E000F09123028081E0912802F091290282FD9C
:1007F0001DC0908180912B028F5F8F7320912C02FE
:10080000821741F0E0912B02F0E0EE5EFD4F958FF4
:1008100080932B02FF91EF919F918F912F910F90D9
:100820000BBE0F900FBE0F901F9018958081F2CFD6
:10083000789484B5826084BD84B5816084BD85B5BB
:10084000826085BD85B5816085BD80916E008160C7
:1008500080936E001092810080918100826080936D
:10086000810080918100816080938100809180006F
:100870008160809380008091B10084608093B1009A
:100880008091B00081608093B0008091910082607F
:10089000809391008091910081608093910080917C
:1008A00090008160809390008091A100826080938D
:1008B000A1008091A10081608093A1008091A0009F
:1008C00081608093A000809121018260809321014A
:1008D00080912101816080932101809120018160BC
:1008E0008093200180917A00846080937A008091C7
:1008F0007A00826080937A0080917A008160809390
:100900007A0080917A00806880937A001092C1000A
:1009100060E086E30E94090261E08CE00E94090227
:1009200061E08AE00E94090261E08BE00E94090216
:1009300061E08AE00E947D0160E08BE00E947D0121
:10094000E0912202F091230282E08083E0911E0276
:10095000F0911F021082E0912002F09121028FECB1
:10096000808310922A02E0912602F091270286E00D
:100970008083E0912402F091250280818061808350
:10098000E0912402F0912502808188608083E091CB
:100990002402F0912502808180688083E091240206
:1009A000F091250280818F7D808388E5E82E82E0AA
:1009B000F82EC8ECD0E018EC61E08CE00E9409024F
:1009C000F7018491EFEFE80FE23108F0B2C0F0E0F8
:1009D0008827E251FB4F8F4F0C94CB05000507058C
:1009E0000C051605200599052A0532053A0544052A
:1009F0004E0558056705710599057B0585058F0529
:100A000084B5806884BD17BD0E943D03D5CF84B5F1
:100A1000806284BD18BDF8CF80918000806880938B
:100A20008000D0938900C0938800EECF8091800031
:100A3000806280938000D0938B00C0938A00E4CFC3
:100A400080918000886080938000D0938D00C09357
:100A50008C00DACF8091B00080688093B000109352
:100A6000B300D2CF8091B00080628093B000109329
:100A7000B400CACF80919000806880939000D0939A
:100A80009900C0939800C0CF8091900080628093BD
:100A90009000D0939B00C0939A00B6CF80919000B5
:100AA000886080939000D0939D00C0939C00ACCF51
:100AB0008091A00080688093A0008091A0008F7B2F
:100AC0008093A000D093A900C093A8009DCF8091EF
:100AD000A00080628093A000D093AB00C093AA00D6
:100AE00093CF8091A00088608093A000D093AD0048
:100AF000C093AC0089CF8091200180688093200151
:100B0000D0932901C09328017FCF8091200180627A
:100B100080932001D0932B01C0932A0175CF80913F
:100B20002001886080932001D0932D01C0932C0177
:100B30006BCF61E08CE00E947D0166CFE2E1F2E0E4
:100B40001382128288EE93E0A0E0B0E08483958364
:100B5000A683B78384E092E09183808385EC90E064
:100B60009587848784EC90E09787868780EC90E077
:100B7000918B808B81EC90E0938B828B82EC90E068
:100B8000958B848B86EC90E0978B868B118E128EE2
:100B9000138E148E0895EE0FFF1F881F8BBF0790D2
:0A0BA000F691E02D1994F894FFCFB0
:100BAA0000000000D0023A0267021D039802760292
:020BBA008A02AD
:00000001FF
