:100000000C9468010C94E3060C94B8060C948D06CD
:100010000C9462060C9437060C940C060C94E105C3
:100020000C94B6050C9499010C9499010C949901C7
:100030000C9499010C9499010C9499010C949901D8
:100040000C9499010C9499010C9499010C949901C8
:100050000C9499010C9499010C9499010C946C05E1
:100060000C9499010C9438070C940E070C94990188
:100070000C9499010C9499010C9499010C94990198
:100080000C9499010C9499010C9499010C94990188
:100090000C9499010C9499010C9499010C94990178
:1000A0000C9499010C9499010C9499010C94990168
:1000B0000C9499010C9499010C9499010C94990158
:1000C0000C9499010C9499010C9499010C94990148
:1000D0000C9499010C9499010C9499010C94990138
:1000E0000C9499010C94F7010C9405020C94A7024E
:1000F0000C94BB020C94E0030C949A030C9413022E
:100100000C94A8030C9498020C942D040C941D02DA
:100110000C94D5020C942A030C94F8020C94E2017E
:100120000C94D0010C94C6040C94CC040C94B10231
:100130000C9402030C944A030C949D020C947703D4
:100140000C94E6010C94D2040C94C3020C94EE01BE
:100150000C940F020C94CB010C9421020C94860396
:100160000C94FB090C940C030C94F1010C94010207
:100170000C9490020C94FB010C9446080C944903D7
:100180000C94DF020C94C0040C94E9020C94CB0292
:100190000C9420030C9417020C9416030C9409027F
:1001A0000C94EA010C94D8040C94DE0400002000A6
:1001B0002300260029002C002F003200000100003F
:1001C00003010601090100002100240027002A0084
:1001D0002D003000330001010000040107010A0175
:1001E00000002200250028002B002E0031003400E2
:1001F00002010000050108010B01050505050705C1
:1002000008080808020202020A0A08080404040492
:1002100001010101010101010303030303030303BE
:10022000040707070C0C0C0C0C0C0C0C020202024D
:1002300006060606060606060B0B0B0B0B0B0B0B36
:1002400001021020200808102040102040800201E8
:1002500002010804020101020408102040808040CD
:1002600020100804020180040201804020100804CC
:10027000020108040201010204081020408001026A
:1002800004081020408000000A0B02090C0D0E0823
:10029000070304010000000000000000000000004F
:1002A000000000000000000000000000000000004E
:1002B000000012111000000000000000000000000B
:1002C0000000000000000000000000004608FB09DC
:1002D00011241FBECFEFD1E2DEBFCDBF00E00CBFC7
:1002E00012E0A0E0B2E0E4EDF6E100E00BBF02C0F6
:1002F00007900D92A834B107D9F723E0A8E4B2E043
:1003000001C01D92A031B207E1F711E0C7E6D1E0CC
:1003100000E006C021970109802FFE010E942B0AF0
:10032000C636D10780E00807A9F70E94B5080C94EB
:10033000580B0C940000282F30E0F901EA57FD4FCC
:100340009491F901E05CFD4F449126503E4FF90134
:100350002491222309F435C0992311F1915092314F
:10036000F8F4E92FF0E08827E754FE4F8F4F0C9404
:100370002B0AEA01EE01CB01E201E601D001F10115
:10038000F701FB010102050209020F021302D0016D
:1003900017021D022102809180008F7780938000D8
:1003A000E22FF0E0EE0FFF1FE052FE4FA591B49157
:1003B0008FB7F894EC91611148C040954E234C934F
:1003C0008FBF0895809180008F7DE8CF809180005D
:1003D000877FE4CF84B58F7784BDE2CF84B58F7DEE
:1003E000FBCF8091B0008F778093B000D9CF809100
:1003F000B0008F7DF9CF809190008F77809390002F
:10040000CFCF809190008F7DF9CF80919000877F32
:10041000F5CF8091A0008F778093A000C1CF80910D
:10042000A0008F7DF9CF8091A000877FF5CF8091CC
:1004300020018F7780932001B3CF809120018F7DA1
:10044000F9CF80912001877FF5CF4E2BB8CFCF9386
:10045000DF9390E0FC01E05CFD4F249186509E4FBD
:10046000FC0184918823D1F090E0880F991FFC0152
:10047000EA53FE4FA591B491FC01E052FE4FC591A5
:10048000D491623071F49FB7F8943C91822F80959B
:1004900083238C93E8812E2B28839FBFDF91CF91FC
:1004A00008958FB7F894EC912E2B2C938FBFF6CF35
:1004B0001F93CF93DF93182FEB0161E00E94270277
:1004C000209739F460E0812FDF91CF911F910C9438
:1004D0009B01CF3FD10511F461E0F5CFE12FF0E0B2
:1004E000EA57FD4FE491E150E23108F0B3C0F0E08B
:1004F0008827E258FD4F8F4F0C942B0A90029802E8
:100500009D02A702B1022A03BB02C302CB02D5029D
:10051000DF02E902F80202032A030C031603200398
:1005200084B5806884BDC7BDDF91CF911F910895C8
:1005300084B5806284BDC8BDF7CF8091800080689B
:1005400080938000D0938900C0938800EDCF809184
:100550008000806280938000D0938B00C0938A00DB
:10056000E3CF80918000886080938000D0938D00DD
:10057000C0938C00D9CF8091B00080688093B00088
:10058000C093B300D1CF8091B00080628093B0005F
:10059000C093B400C9CF8091900080688093900090
:1005A000D0939900C0939800BFCF80919000806253
:1005B00080939000D0939B00C0939A00B5CF809118
:1005C0009000886080939000D0939D00C0939C0021
:1005D000ABCF8091A00080688093A0008091A000A4
:1005E0008F7B8093A000D093A900C093A8009CCFDC
:1005F0008091A00080628093A000D093AB00C09354
:10060000AA0092CF8091A00088608093A000D09330
:10061000AD00C093AC0088CF8091200180688093AA
:100620002001D0932901C09328017ECF8091200121
:10063000806280932001D0932B01C0932A0174CF54
:1006400080912001886080932001D0932D01C09378
:100650002C016ACFC038D1050CF03ECF33CFCF93F9
:10066000DF93EC0197FF02C0D0E0C0E0CF3FD1059F
:1006700019F014F0CFEFD0E0D0930303C09302033E
:10068000BE018091FC020E945802CE01DF91CF9101
:1006900008950895AF92BF92CF92DF92EF92FF92AA
:1006A0000F931F93CF93DF936C017B018B01040F9A
:1006B000151FEB015E01AE18BF08C017D10759F036
:1006C0006991D601ED91FC910190F081E02DC60178
:1006D0001995892B79F7C501DF91CF911F910F9162
:1006E000FF90EF90DF90CF90BF90AF900895FC0106
:1006F000538D448D252F30E0842F90E0821B930B87
:10070000541710F0CF96089501970895FC01918D2C
:10071000828D981761F0A28DAE0FBF2FB11D5D962F
:100720008C91928D9F5F9F73928F90E008958FEFD1
:100730009FEF0895FC01918D828D981731F0828D85
:10074000E80FF11D858D90E008958FEF9FEF0895DC
:10075000FC01918D228D892F90E0805C9F4F821B40
:1007600091098F73992708958FE592E00E94A8035D
:1007700021E0892B09F420E0822F0895FC01A48D4B
:10078000A80FB92FB11DA35ABF4F2C91848D90E0B3
:1007900001968F739927848FA689B7892C93A08996
:1007A000B1898C91837080648C93938D848D981320
:1007B00006C00288F389E02D80818F7D80830895B3
:1007C000EF92FF920F931F93CF93DF93EC0181E0A1
:1007D000888F9B8D8C8D98131AC0E889F989808148
:1007E00085FF15C09FB7F894EE89FF896083E8897B
:1007F000F98980818370806480839FBF81E090E06D
:10080000DF91CF911F910F91FF90EF900895F62EF9
:100810000B8D10E00F5F1F4F0F731127E02E8C8D93
:100820008E110CC00FB607FCFACFE889F9898081D8
:1008300085FFF5CFCE010E94BE03F1CFEB8DEC0F0B
:10084000FD2FF11DE35AFF4FF0829FB7F8940B8FF5
:10085000EA89FB8980818062CFCFCF93DF93EC015F
:10086000888D8823B9F0AA89BB89E889F9898C9198
:1008700085FD03C0808186FD0DC00FB607FCF7CF54
:100880008C9185FFF2CF808185FFEDCFCE010E9454
:10089000BE03E9CFDF91CF91089580E090E0892BEE
:1008A00029F00E94B40381110E94000080E090E0D2
:1008B000892B49F080E090E0892B29F00E9400000C
:1008C00081110E94000080E090E0892B49F080E0D7
:1008D00090E0892B29F00E94000081110E94000005
:1008E00080E090E0892B49F080E090E0892B29F0AE
:1008F0000E94000081110C9400000895DC01ED912C
:10090000FD918081ED91FD919081ED91FD916C9132
:1009100063708E2309F064609F2309F06860EBE93F
:10092000F4E0E60FF11D659565956D936D917D91F0
:100930008D919D91099423C01AC012C016C010C099
:100940001EC009C014C013C006C019C009C00DC024
:1009500007C00DC014C062507040804090400BC072
:10096000615070408040904006C06E5F01C06F5F74
:100970007F4F8F4F9F4F9E938E937E936E930895DC
:1009800080915202909153020C947E048091500207
:10099000909151020C947E0480914E0290914F02EE
:1009A0000C947E0480914C0290914D020C947E0434
:1009B00080914A0290914B020C947E0480914802EF
:1009C000909149020C947E04FC0101900020E9F70B
:1009D0003197AF01481B590BBC018FE592E00C9495
:1009E0004A038F929F92AF92BF92CF92DF92EF9283
:1009F000FF920F931F93CF93DF93CDB7DEB7A197ED
:100A00000FB6F894DEBF0FBECDBF6B017C01F7FEC1
:100A100041C06DE28FE592E00E94E0038C01222745
:100A20003327A9012C193D094E095F0919A2CE01EE
:100A300081967C019AE0892E912CA12CB12CCA01BF
:100A4000B901A50194010E94090A605DF701629352
:100A50007F01211531054105510589F790E080E0BE
:100A6000309719F0CF010E94E404800F911FA196E6
:100A70000FB6F894DEBF0FBECDBFDF91CF911F91AF
:100A80000F91FF90EF90DF90CF90BF90AF909F902D
:100A90008F900895AC019B0119A28E010F5D1F4F2D
:100AA0008AE0C82ED12CE12CF12CCA01B901A70192
:100AB00096010E94090A605DF80162938F01211579
:100AC00031054105510589F790E080E0309779F2D2
:100AD000CF010E94E404CBCF1F920F920FB60F926A
:100AE00011242F933F938F939F93AF93BF93809144
:100AF0005B0290915C02A0915D02B0915E02309128
:100B00005A0223E0230F2D3758F50196A11DB11D80
:100B100020935A0280935B0290935C02A0935D0243
:100B2000B0935E028091560290915702A0915802B4
:100B3000B09159020196A11DB11D80935602909368
:100B40005702A0935802B0935902BF91AF919F9161
:100B50008F913F912F910F900FBE0F901F9018957E
:100B600026E8230F0296A11DB11DD2CF1F920F922E
:100B70000FB60F9211240BB60F922F933F934F9302
:100B80005F936F937F938F939F93AF93BF93EF93F5
:100B9000FF93E0910E02F0910F021995FF91EF91F2
:100BA000BF91AF919F918F917F916F915F914F9185
:100BB0003F912F910F900BBE0F900FBE0F901F9083
:100BC00018951F920F920FB60F9211240BB60F9229
:100BD0002F933F934F935F936F937F938F939F9345
:100BE000AF93BF93EF93FF93E0910C02F0910D024E
:100BF0001995FF91EF91BF91AF919F918F917F9147
:100C00006F915F914F913F912F910F900BBE0F907D
:100C10000FBE0F901F9018951F920F920FB60F9254
:100C200011240BB60F922F933F934F935F936F93C3
:100C30007F938F939F93AF93BF93EF93FF93E09135
:100C40000202F09103021995FF91EF91BF91AF91CC
:100C50009F918F917F916F915F914F913F912F91D4
:100C60000F900BBE0F900FBE0F901F9018951F9204
:100C70000F920FB60F9211240BB60F922F933F9342
:100C80004F935F936F937F938F939F93AF93BF9394
:100C9000EF93FF93E0910002F09101021995FF910B
:100CA000EF91BF91AF919F918F917F916F915F91E4
:100CB0004F913F912F910F900BBE0F900FBE0F9051
:100CC0001F9018951F920F920FB60F9211240BB61A
:100CD0000F922F933F934F935F936F937F938F93D5
:100CE0009F93AF93BF93EF93FF93E0910A02F0912C
:100CF0000B021995FF91EF91BF91AF919F918F9149
:100D00007F916F915F914F913F912F910F900BBE0B
:100D10000F900FBE0F901F9018951F920F920FB655
:100D20000F9211240BB60F922F933F934F935F9323
:100D30006F937F938F939F93AF93BF93EF93FF93A3
:100D4000E0910802F09109021995FF91EF91BF918E
:100D5000AF919F918F917F916F915F914F913F9153
:100D60002F910F900BBE0F900FBE0F901F901895F4
:100D70001F920F920FB60F9211240BB60F922F9362
:100D80003F934F935F936F937F938F939F93AF9313
:100D9000BF93EF93FF93E0910602F091070219953C
:100DA000FF91EF91BF91AF919F918F917F916F9143
:100DB0005F914F913F912F910F900BBE0F900FBEFF
:100DC0000F901F9018951F920F920FB60F9211243B
:100DD0000BB60F922F933F934F935F936F937F9335
:100DE0008F939F93AF93BF93EF93FF93E091040290
:100DF000F09105021995FF91EF91BF91AF919F91ED
:100E00008F917F916F915F914F913F912F910F90B3
:100E10000BBE0F900FBE0F901F9018951F920F9250
:100E20000FB60F9211240BB60F922F933F934F934F
:100E30005F936F937F938F939F93AF93BF93EF9342
:100E4000FF938FE592E00E94BE03FF91EF91BF9167
:100E5000AF919F918F917F916F915F914F913F9152
:100E60002F910F900BBE0F900FBE0F901F901895F3
:100E70001F920F920FB60F9211240BB60F922F9361
:100E80008F939F93EF93FF93E0916F02F091700225
:100E90008081E0917502F091760282FD1DC0908103
:100EA000809178028F5F8F7320917902821741F0D1
:100EB000E0917802F0E0E15AFD4F958F809378023F
:100EC000FF91EF919F918F912F910F900BBE0F90FB
:100ED0000FBE0F901F9018958081F2CF823109F4D8
:100EE00068C030F48230E1F0833069F180E0089529
:100EF0008431D9F108F44BC08531C1F770934D02AC
:100F000060934C0282ED94E090930502809304027A
:100F1000809169008C7F816080936900E89A11C09C
:100F200070934902609348028EED94E09093010221
:100F30008093000280916A008C7F816080936A00B8
:100F4000EC9A81E0089570934B0260934A0288ED19
:100F500094E0909303028093020280916A00837F61
:100F6000846080936A00ED9AECCF70934F02609397
:100F70004E028CEC94E090930702809306028091DD
:100F80006900837F846080936900E99ADACF709367
:100F900051026093500286EC94E090930902809392
:100FA0000802809169008F7C806180936900EA9AD1
:100FB000C8CF709353026093520280EC94E09093F8
:100FC0000B0280930A02809169008F738064809382
:100FD0006900EB9AB6CF0F931F93CF93DF93EC0189
:100FE000062F142F62E0802F0E94270262E0812FDB
:100FF0000E942702802F90E0FC01E650FE4FE49112
:10100000F0E0EE0FFF1FE455FE4FA591B491B983B8
:10101000A883FC01E05CFD4F24912C83812F90E09C
:10102000FC01E650FE4FE491F0E0EE0FFF1FE455A7
:10103000FE4F459154915B834A83FC01E05CFD4F78
:10104000E491ED831F82188619861A868BE39FE14F
:101050000197F1F78C91282391E009F490E0DA01EF
:101060008C91E82309F092609E83BE01802F0E943C
:101070006E078B87BE01812F0E946E079B85890FAB
:101080008B87DF91CF911F910F9108950F931F933D
:10109000CF93DF93EFE5F2E01382128288EE93E0C4
:1010A000A0E0B0E084839583A683B7838AE192E0D1
:1010B0009183808385EC90E09587848784EC90E031
:1010C0009787868780EC90E0918B808B81EC90E015
:1010D000938B828B82EC90E0958B848B86EC90E0F6
:1010E000978B868B118E128E138E148ECCEFD2E0DE
:1010F0008CE090E0998388838BE090E09B838A83E7
:101100008AE090E09D838C838CE090E00E94330A1B
:101110008C0145E164E10E94EB071D870C878CE0A0
:1011200090E00E94330A8C0145E364E10E94EB07E2
:101130001F870E8761E088810E94270261E08A8113
:101140000E94270261E08C810E94270261E08A816F
:101150000E949B0160E08C810E949B011F821E8285
:10116000DF91CF911F910F910895789484B582609B
:1011700084BD84B5816084BD85B5826085BD85B53B
:10118000816085BD80916E00816080936E001092B9
:101190008100809181008260809381008091810034
:1011A00081608093810080918000816080938000C5
:1011B0008091B10084608093B1008091B000816023
:1011C0008093B00080919100826080939100809123
:1011D0009100816080939100809190008160809364
:1011E00090008091A10082608093A1008091A10075
:1011F00081608093A1008091A00081608093A00015
:101200008091210182608093210180912101816080
:101210008093210180912001816080932001809141
:101220007A00846080937A0080917A008260809353
:101230007A0080917A00816080937A0080917A00B0
:10124000806880937A001092C1008091540290913E
:1012500055020E942F036091020370910303809155
:10126000FC020E945802E0916F02F091700282E04D
:101270008083E0916B02F0916C021082E0916D022C
:10128000F0916E028FEC808310927702E0917302EE
:10129000F091740286E08083E0917102F091720215
:1012A000808180618083E0917102F091720280817F
:1012B00088608083E0917102F09172028081806881
:1012C0008083E0917102F091720280818F7D808332
:1012D0008FE592E00E94A80318161906ECF48FE53A
:1012E00092E00E948603EC01BC01990F880B990BD8
:1012F0000E94F10488E292E00E94E404C237D10522
:1013000009F46AC00CF03DC0C136D10509F44CC0E7
:10131000C436D10509F453C08BE292E00E94E40484
:10132000C0910803D09109038B85823008F05FC01B
:10133000F894CE010E947E046F81788589859A8514
:1013400078940E94F10487E392E00E94E404C09143
:101350000A03D0910B038B85823008F04AC0F894C1
:10136000CE010E947E046F81788589859A85789464
:101370000E94F10488E292E00E94E4040E944D047D
:10138000A7CFC337D10511F1809154029091550236
:101390004496C737D10509F0BFCF0E942F03909321
:1013A000550280935402B8CF60E08091FE020E9403
:1013B0009B0161E0809100030E949B01ADCF61E041
:1013C0008091FE020E949B0160E0F4CF8091540264
:1013D000909155024497E1CFE0910803F091090301
:1013E000F8941782108611861286789495CFF89417
:1013F000A3CFF894B8CFCF93DF93CCEFD2E08C8516
:101400009D850E94CF0A8E859F85DF91CF910C9498
:10141000CF0AA1E21A2EAA1BBB1BFD010DC0AA1FF9
:10142000BB1FEE1FFF1FA217B307E407F50720F04D
:10143000A21BB30BE40BF50B661F771F881F991FC8
:101440001A9469F760957095809590959B01AC0111
:10145000BD01CF010895EE0FFF1F881F8BBF0790BE
:10146000F691E02D19940F931F93CF93DF93823061
:10147000910510F482E090E0E0910E03F0910F03EB
:1014800030E020E0B0E0A0E0309799F4211531057C
:1014900009F44AC0281B390B24303105D8F58A815C
:1014A0009B816115710589F1FB0193838283FE01A4
:1014B00011C0408151810281138148175907E0F022
:1014C0004817590799F4109761F012960C931297E8
:1014D00013961C933296CF01DF91CF911F910F91FC
:1014E000089500930E0310930F03F4CF21153105D7
:1014F00051F04217530738F0A901DB019A01BD01F1
:10150000DF01F801C1CFEF01F9CF90930F03809372
:101510000E03CDCFFE01E20FF31F81939193225072
:10152000310939832883D7CF20910C0330910D03E3
:10153000232B41F4209112023091130230930D03BA
:1015400020930C03209110023091110221153105D6
:1015500041F42DB73EB74091140250911502241B5F
:10156000350BE0910C03F0910D03E217F307A0F4A3
:101570002E1B3F0B2817390778F0AC014E5F5F4FE9
:101580002417350748F04E0F5F1F50930D0340930B
:101590000C03819391939FCFF0E0E0E09CCFCF9339
:1015A000DF930097E9F0FC01329713821282A09139
:1015B0000E03B0910F03ED0130E020E01097A1F48D
:1015C00020813181820F931F20910C0330910D03F4
:1015D0002817390709F061C0F0930D03E0930C035D
:1015E000DF91CF910895EA01CE17DF07E8F54A8130
:1015F0005B819E0141155105B1F7E901FB83EA8347
:1016000049915991C40FD51FEC17FD0761F48081F2
:1016100091810296840F951FE901998388838281C5
:1016200093819B838A83F0E0E0E012968D919C91F8
:1016300013970097B9F52D913C911197CD01029622
:10164000820F931F20910C0330910D032817390747
:1016500039F6309751F510920F0310920E03B093A4
:101660000D03A0930C03BCCFD383C283408151816F
:10167000840F951FC817D90761F44E5F5F4F8881AB
:101680009981480F591F518340838A819B8193839D
:1016900082832115310509F0B0CFF0930F03E09359
:1016A0000E039ECFFD01DC01C0CF13821282D7CF83
:1016B00011E0C7E6D1E000E006C0802FFE010E94E5
:1016C0002B0A2196011DC836D10780E00807A9F72B
:0416D000F894FFCFBC
:1016D40049034903490349034903490349034903A6
:1016E40000001003800000000000E0034A037703B9
:1016F4002D04A80386039A030D0A00656E636F64C4
:10170400657220413A2000207C7C20656E636F6402
:08171400657220423A2000003A
:00000001FF
